{"abi":[{"type":"constructor","inputs":[{"name":"subject_","type":"address","internalType":"contract IERC20OperatableMintable"},{"name":"rc_","type":"address","internalType":"contract IERC20OperatableMintable"},{"name":"basePool_","type":"address","internalType":"contract IUniswapV2Pair"},{"name":"indexedPool_","type":"address","internalType":"contract UniV2IndexedYieldLinearExitPool"}],"stateMutability":"nonpayable"},{"type":"function","name":"DETF_NFT_TOKEN_ID","inputs":[],"outputs":[{"name":"","type":"uint256","internalType":"uint256"}],"stateMutability":"view"},{"type":"function","name":"acceptOwnership","inputs":[],"outputs":[{"name":"","type":"bool","internalType":"bool"}],"stateMutability":"nonpayable"},{"type":"function","name":"allOwnedURIs","inputs":[{"name":"account","type":"address","internalType":"address"}],"outputs":[{"name":"uris","type":"string[]","internalType":"string[]"}],"stateMutability":"view"},{"type":"function","name":"approve","inputs":[{"name":"to","type":"address","internalType":"address"},{"name":"tokenId","type":"uint256","internalType":"uint256"}],"outputs":[],"stateMutability":"nonpayable"},{"type":"function","name":"balanceOf","inputs":[{"name":"owner","type":"address","internalType":"address"}],"outputs":[{"name":"","type":"uint256","internalType":"uint256"}],"stateMutability":"view"},{"type":"function","name":"basePool","inputs":[],"outputs":[{"name":"","type":"address","internalType":"contract IUniswapV2Pair"}],"stateMutability":"view"},{"type":"function","name":"calculatePositionValue","inputs":[{"name":"lpAmount","type":"uint256","internalType":"uint256"}],"outputs":[{"name":"","type":"uint256","internalType":"uint256"}],"stateMutability":"pure"},{"type":"function","name":"deposit","inputs":[{"name":"depositAmt","type":"uint256","internalType":"uint256"}],"outputs":[{"name":"tokenId_","type":"uint256","internalType":"uint256"}],"stateMutability":"nonpayable"},{"type":"function","name":"enableWithdraw","inputs":[],"outputs":[{"name":"","type":"bool","internalType":"bool"}],"stateMutability":"nonpayable"},{"type":"function","name":"getApproved","inputs":[{"name":"tokenId","type":"uint256","internalType":"uint256"}],"outputs":[{"name":"","type":"address","internalType":"address"}],"stateMutability":"view"},{"type":"function","name":"initPool","inputs":[],"outputs":[],"stateMutability":"nonpayable"},{"type":"function","name":"isApprovedForAll","inputs":[{"name":"owner","type":"address","internalType":"address"},{"name":"operator","type":"address","internalType":"address"}],"outputs":[{"name":"","type":"bool","internalType":"bool"}],"stateMutability":"view"},{"type":"function","name":"isOperator","inputs":[{"name":"query","type":"address","internalType":"address"}],"outputs":[{"name":"","type":"bool","internalType":"bool"}],"stateMutability":"view"},{"type":"function","name":"lockEnd","inputs":[],"outputs":[{"name":"","type":"uint256","internalType":"uint256"}],"stateMutability":"view"},{"type":"function","name":"lockPeriod","inputs":[],"outputs":[{"name":"","type":"uint256","internalType":"uint256"}],"stateMutability":"view"},{"type":"function","name":"name","inputs":[],"outputs":[{"name":"","type":"string","internalType":"string"}],"stateMutability":"view"},{"type":"function","name":"owner","inputs":[],"outputs":[{"name":"","type":"address","internalType":"address"}],"stateMutability":"view"},{"type":"function","name":"ownerOf","inputs":[{"name":"tokenId","type":"uint256","internalType":"uint256"}],"outputs":[{"name":"","type":"address","internalType":"address"}],"stateMutability":"view"},{"type":"function","name":"positions","inputs":[{"name":"tokenId","type":"uint256","internalType":"uint256"}],"outputs":[{"name":"depositAmount","type":"uint256","internalType":"uint256"},{"name":"creator","type":"address","internalType":"address"},{"name":"creationTimestamp","type":"uint256","internalType":"uint256"},{"name":"liquidityOwned","type":"uint256","internalType":"uint256"},{"name":"isLocked","type":"bool","internalType":"bool"},{"name":"lockedUntil","type":"uint256","internalType":"uint256"},{"name":"positionValue","type":"uint256","internalType":"uint256"},{"name":"positionOwner","type":"address","internalType":"address"}],"stateMutability":"view"},{"type":"function","name":"proposedOwner","inputs":[],"outputs":[{"name":"","type":"address","internalType":"address"}],"stateMutability":"view"},{"type":"function","name":"rc","inputs":[],"outputs":[{"name":"","type":"address","internalType":"contract IERC20OperatableMintable"}],"stateMutability":"view"},{"type":"function","name":"redeemToDeposit","inputs":[{"name":"saleAmt","type":"uint256","internalType":"uint256"}],"outputs":[{"name":"tokenId_","type":"uint256","internalType":"uint256"}],"stateMutability":"nonpayable"},{"type":"function","name":"renounceOwnership","inputs":[],"outputs":[{"name":"","type":"bool","internalType":"bool"}],"stateMutability":"nonpayable"},{"type":"function","name":"safeTransferFrom","inputs":[{"name":"from","type":"address","internalType":"address"},{"name":"to","type":"address","internalType":"address"},{"name":"tokenId","type":"uint256","internalType":"uint256"}],"outputs":[],"stateMutability":"nonpayable"},{"type":"function","name":"safeTransferFrom","inputs":[{"name":"from","type":"address","internalType":"address"},{"name":"to","type":"address","internalType":"address"},{"name":"tokenId","type":"uint256","internalType":"uint256"},{"name":"data","type":"bytes","internalType":"bytes"}],"outputs":[],"stateMutability":"nonpayable"},{"type":"function","name":"setApprovalForAll","inputs":[{"name":"operator","type":"address","internalType":"address"},{"name":"approved","type":"bool","internalType":"bool"}],"outputs":[],"stateMutability":"nonpayable"},{"type":"function","name":"setOperator","inputs":[{"name":"operator","type":"address","internalType":"address"},{"name":"status","type":"bool","internalType":"bool"}],"outputs":[{"name":"","type":"bool","internalType":"bool"}],"stateMutability":"nonpayable"},{"type":"function","name":"subject","inputs":[],"outputs":[{"name":"","type":"address","internalType":"contract IERC20OperatableMintable"}],"stateMutability":"view"},{"type":"function","name":"supportsInterface","inputs":[{"name":"interfaceId","type":"bytes4","internalType":"bytes4"}],"outputs":[{"name":"isSupported","type":"bool","internalType":"bool"}],"stateMutability":"view"},{"type":"function","name":"symbol","inputs":[],"outputs":[{"name":"","type":"string","internalType":"string"}],"stateMutability":"view"},{"type":"function","name":"tokenURI","inputs":[{"name":"tokenId","type":"uint256","internalType":"uint256"}],"outputs":[{"name":"","type":"string","internalType":"string"}],"stateMutability":"view"},{"type":"function","name":"transferFrom","inputs":[{"name":"from","type":"address","internalType":"address"},{"name":"to","type":"address","internalType":"address"},{"name":"tokenId","type":"uint256","internalType":"uint256"}],"outputs":[],"stateMutability":"nonpayable"},{"type":"function","name":"transferOwnership","inputs":[{"name":"proposedOwner_","type":"address","internalType":"address"}],"outputs":[{"name":"","type":"bool","internalType":"bool"}],"stateMutability":"nonpayable"},{"type":"function","name":"withdrawEnabled","inputs":[],"outputs":[{"name":"","type":"bool","internalType":"bool"}],"stateMutability":"view"},{"type":"event","name":"Approval","inputs":[{"name":"owner","type":"address","indexed":true,"internalType":"address"},{"name":"approved","type":"address","indexed":true,"internalType":"address"},{"name":"tokenId","type":"uint256","indexed":true,"internalType":"uint256"}],"anonymous":false},{"type":"event","name":"ApprovalForAll","inputs":[{"name":"owner","type":"address","indexed":true,"internalType":"address"},{"name":"operator","type":"address","indexed":true,"internalType":"address"},{"name":"approved","type":"bool","indexed":false,"internalType":"bool"}],"anonymous":false},{"type":"event","name":"OwnershipTransfered","inputs":[{"name":"prevOwner","type":"address","indexed":true,"internalType":"address"},{"name":"newOwner","type":"address","indexed":true,"internalType":"address"}],"anonymous":false},{"type":"event","name":"Transfer","inputs":[{"name":"from","type":"address","indexed":true,"internalType":"address"},{"name":"to","type":"address","indexed":true,"internalType":"address"},{"name":"tokenId","type":"uint256","indexed":true,"internalType":"uint256"}],"anonymous":false},{"type":"event","name":"TransferProposed","inputs":[{"name":"proposedOwner","type":"address","indexed":true,"internalType":"address"}],"anonymous":false},{"type":"error","name":"ERC20InsufficientAllowance","inputs":[{"name":"spender","type":"address","internalType":"address"},{"name":"allowance","type":"uint256","internalType":"uint256"},{"name":"needed","type":"uint256","internalType":"uint256"}]},{"type":"error","name":"ERC20InsufficientBalance","inputs":[{"name":"sender","type":"address","internalType":"address"},{"name":"balance","type":"uint256","internalType":"uint256"},{"name":"needed","type":"uint256","internalType":"uint256"}]},{"type":"error","name":"ERC20InvalidApprover","inputs":[{"name":"approver","type":"address","internalType":"address"}]},{"type":"error","name":"ERC20InvalidReceiver","inputs":[{"name":"receiver","type":"address","internalType":"address"}]},{"type":"error","name":"ERC20InvalidSender","inputs":[{"name":"sender","type":"address","internalType":"address"}]},{"type":"error","name":"ERC20InvalidSpender","inputs":[{"name":"spender","type":"address","internalType":"address"}]},{"type":"error","name":"ERC721IncorrectOwner","inputs":[{"name":"sender","type":"address","internalType":"address"},{"name":"tokenId","type":"uint256","internalType":"uint256"},{"name":"owner","type":"address","internalType":"address"}]},{"type":"error","name":"ERC721InsufficientApproval","inputs":[{"name":"operator","type":"address","internalType":"address"},{"name":"tokenId","type":"uint256","internalType":"uint256"}]},{"type":"error","name":"ERC721InvalidApprover","inputs":[{"name":"approver","type":"address","internalType":"address"}]},{"type":"error","name":"ERC721InvalidOperator","inputs":[{"name":"operator","type":"address","internalType":"address"}]},{"type":"error","name":"ERC721InvalidOwner","inputs":[{"name":"owner","type":"address","internalType":"address"}]},{"type":"error","name":"ERC721InvalidReceiver","inputs":[{"name":"receiver","type":"address","internalType":"address"}]},{"type":"error","name":"ERC721InvalidSender","inputs":[{"name":"sender","type":"address","internalType":"address"}]},{"type":"error","name":"ERC721NonexistentToken","inputs":[{"name":"tokenId","type":"uint256","internalType":"uint256"}]},{"type":"error","name":"MaxDepositExceeded","inputs":[]},{"type":"error","name":"NotOwner","inputs":[{"name":"caller","type":"address","internalType":"address"}]},{"type":"error","name":"NotProposed","inputs":[{"name":"caller","type":"address","internalType":"address"}]}],"bytecode":{"object":"0x60806040523480156200001157600080fd5b506040516200544f3803806200544f8339810160408190526200003491620009ed565b6200003f3362000101565b600180546001600160a01b038087166001600160a01b03199283161790925560028054928616929091169190911790556200007e62278d004262000a6b565b6000818155600380546001600160a01b038087166001600160a01b03199283161790925560048054928616929091169190911790556040805160c081018252828152306020820181905242928201929092526060810183905262278d00608082015260a0810193909352620000f69290919062000158565b505050505062000a97565b806200010c62000186565b80546001600160a01b0319166001600160a01b03928316179055604051908216906000907f0d18b5fd22306e373229b9439188228edca81207d1667f604daf6cef8aa3ee67908290a350565b6000620001668484620001fa565b62000172838362000231565b6200017e8484620002a7565b949350505050565b6000620001f5600160405180602001620001a090620009a0565b601f1982820381018352601f90910116604081815282516020938401206001600160a01b03168383015280518083038401815291810190528051910120620001e9919062000a81565b63a6e1d6ed60e01b1890565b905090565b6200022c816200020962000323565b6001600160a01b0385166000908152600291909101602052604090209062000392565b505050565b806200023c62000323565b600093845260019081016020908152604094859020835181559083015191810180546001600160a01b0319166001600160a01b0390931692909217909155928101516002840155606081015160038401556080810151600484015560a0015160059092019190915550565b60006001600160a01b038316620002d957604051633250574960e11b8152600060048201526024015b60405180910390fd5b6000620002e8848483620003ee565b90506001600160a01b0381161562000317576040516339e3563760e11b815260006004820152602401620002d0565b60019150505b92915050565b6000620001f56001604051806020016200033d90620009ad565b601f1982820381018352601f90910116604081815282516020938401206001600160a01b0316838301528051808303840181529181019052805191012062000386919062000a81565b6311e68ef760e21b1890565b600081815260208390526040812054620003e5576001808401805491820181556000818152602080822090930185905590548482529185905260409020556002830154821115620003e557600283018290555b50600192915050565b600080620003fc84620004b9565b90506001600160a01b038316156200041b576200041b818486620004c6565b6001600160a01b0381161562000447576200043a600085818062000530565b6200044781600162000623565b6001600160a01b0385161562000464576200046485600162000685565b620004708486620006a6565b83856001600160a01b0316826001600160a01b03167fddf252ad1be2c89b69c2b068fc378daa952ba7f163c4a11628f55a4df523b3ef60405160405180910390a4949350505050565b60006200031d82620006e2565b620004d38383836200070b565b6200022c576001600160a01b0383166200050457604051637e27328960e01b815260048101829052602401620002d0565b60405163177e802f60e01b81526001600160a01b038316600482015260248101829052604401620002d0565b80806200054557506001600160a01b03821615155b1562000611576000620005588462000777565b90506001600160a01b03831615801590620005855750826001600160a01b0316816001600160a01b031614155b80156200059b5750620005998184620007b3565b155b15620005c65760405163a9fbf51f60e01b81526001600160a01b0384166004820152602401620002d0565b81156200060f5783856001600160a01b0316826001600160a01b03167f8c5be1e5ebec7d5bd14f71427d1e84f3dd0314c0f7b2291e5b200ac8c7c3b92560405160405180910390a45b505b6200061d8385620007f2565b50505050565b600062000630836200082e565b9050818110156200066e5760405163391434e360e21b81526001600160a01b03841660048201526024810182905260448101839052606401620002d0565b6200022c836200067f848462000a81565b6200085c565b620006a2828262000696826200082e565b6200067f919062000a6b565b5050565b80620006b16200088c565b6000938452600101602052604090922080546001600160a01b0319166001600160a01b039093169290921790915550565b6000620006ee6200088c565b60009283526001016020525060409020546001600160a01b031690565b60006001600160a01b038316158015906200017e5750826001600160a01b0316846001600160a01b03161480620007495750620007498484620007b3565b806200017e57506001600160a01b0383166200076583620008fb565b6001600160a01b031614949350505050565b6000806200078583620004b9565b90506001600160a01b0381166200031d57604051637e27328960e01b815260048101849052602401620002d0565b6000620007bf6200088c565b6001600160a01b039384166000908152600391909101602090815260408083209490951682529290925250205460ff1690565b80620007fd6200088c565b6000938452600201602052604090922080546001600160a01b0319166001600160a01b039093169290921790915550565b60006200083a62000908565b6001600160a01b03909216600090815260049290920160205250604090205490565b806200086762000908565b6001600160a01b03909316600090815260049390930160205260409092209190915550565b6000620001f5600160405180602001620008a690620009ba565b601f1982820381018352601f90910116604081815282516020938401206001600160a01b03168383015280518083038401815291810190528051910120620008ef919062000a81565b6380ac58cd60e01b1890565b60006200031d8262000977565b6000620001f56001604051806020016200092290620009c7565b601f1982820381018352601f90910116604081815282516020938401206001600160a01b031683830152805180830384018152918101905280519101206200096b919062000a81565b634a17459160e11b1890565b6000620009836200088c565b60009283526002016020525060409020546001600160a01b031690565b60e980620050ab83390190565b60e9806200519483390190565b60e9806200527d83390190565b60e9806200536683390190565b6001600160a01b0381168114620009ea57600080fd5b50565b6000806000806080858703121562000a0457600080fd5b845162000a1181620009d4565b602086015190945062000a2481620009d4565b604086015190935062000a3781620009d4565b606086015190925062000a4a81620009d4565b939692955090935050565b634e487b7160e01b600052601160045260246000fd5b808201808211156200031d576200031d62000a55565b818103818111156200031d576200031d62000a55565b6146048062000aa76000396000f3fe608060405234801561001057600080fd5b50600436106102065760003560e01c8063715018a61161011a578063b88d4fde116100ad578063d153b60c1161007c578063d153b60c1461044c578063e985e9c514610454578063f0c0810114610467578063f2fde38b1461047a578063fe437a171461048d57600080fd5b8063b88d4fde1461040b578063c531e24f1461041e578063c87b56dd14610431578063ca4421641461044457600080fd5b806399fbab88116100e957806399fbab8814610383578063a0ee4501146103dc578063a22cb465146103e5578063b6b55f25146103f857600080fd5b8063715018a61461036357806379ba50971461036b5780638da5cb5b1461037357806395d89b411461037b57600080fd5b80632287e96a1161019d578063558a72971161016c578063558a72971461030f5780635b984ff6146103225780636352211e1461032a5780636d70f7ae1461033d57806370a082311461035057600080fd5b80632287e96a146102d757806323b872dd146102df5780633fd8b02f146102f257806342842e0e146102fc57600080fd5b8063081812fc116101d9578063081812fc14610273578063095ea7b31461029e5780630a59a98c146102b157806312f77332146102c457600080fd5b806301ffc9a71461020b57806302a503291461023357806306fdde0314610254578063080ce2eb14610269575b600080fd5b61021e610219366004613a66565b6104ad565b60405190151581526020015b60405180910390f35b610246610241366004613a83565b6104be565b60405190815260200161022a565b61025c6104ce565b60405161022a9190613aec565b6102716104dd565b005b610286610281366004613a83565b6108ed565b6040516001600160a01b03909116815260200161022a565b6102716102ac366004613b14565b610902565b600154610286906001600160a01b031681565b600254610286906001600160a01b031681565b61021e610911565b6102716102ed366004613b40565b61091b565b61024662278d0081565b61027161030a366004613b40565b610936565b61021e61031d366004613b8f565b61095c565b61021e610994565b610286610338366004613a83565b6109b8565b61021e61034b366004613bc8565b6109c3565b61024661035e366004613bc8565b6109ef565b61021e610a29565b61021e610a3d565b610286610a51565b61025c610a5b565b610396610391366004613a83565b610a65565b604080519889526001600160a01b0397881660208a01528801959095526060870193909352901515608086015260a085015260c08401521660e08201526101000161022a565b61024660005481565b6102716103f3366004613b8f565b610a95565b610246610406366004613a83565b610aa0565b610271610419366004613c54565b610b10565b600354610286906001600160a01b031681565b61025c61043f366004613a83565b610b2d565b610246600081565b610286610c57565b61021e610462366004613d03565b610c61565b610246610475366004613a83565b610c6d565b61021e610488366004613bc8565b6115d1565b6104a061049b366004613bc8565b6115e6565b60405161022a9190613d31565b60006104b8826117bd565b92915050565b6000670de0b6b3a76400006104b8565b60606104d86117d2565b905090565b6003546001600160a01b031660006104fe670de0b6b3a7640000600a613dab565b61050990600a613dab565b61051490600a613dab565b61051f90600a613dab565b61052a90600a613dab565b6001546040516394bf804d60e01b8152600481018390526001600160a01b0385811660248301529293509116906394bf804d906044016020604051808303816000875af115801561057f573d6000803e3d6000fd5b505050506040513d601f19601f820116820180604052508101906105a39190613dc2565b506002546040516394bf804d60e01b8152600481018390526001600160a01b038481166024830152909116906394bf804d906044016020604051808303816000875af11580156105f7573d6000803e3d6000fd5b505050506040513d601f19601f8201168201806040525081019061061b9190613dc2565b506040516335313c2160e11b81523060048201526000906001600160a01b03841690636a627842906024016020604051808303816000875af1158015610665573d6000803e3d6000fd5b505050506040513d601f19601f820116820180604052508101906106899190613dc2565b6004805460405163095ea7b360e01b81526001600160a01b03918216928101839052600019602482015292935090919085169063095ea7b3906044016020604051808303816000875af11580156106e4573d6000803e3d6000fd5b505050506040513d601f19601f820116820180604052508101906107089190613ddb565b506040516370a0823160e01b81523060048201819052600091610814916001600160a01b038086169263db6f344c92918a91908216906370a08231906024015b602060405180830381865afa158015610765573d6000803e3d6000fd5b505050506040513d601f19601f820116820180604052508101906107899190613dc2565b6040516001600160e01b031960e086901b1681526001600160a01b0393841660048201529290911660248301526044820152600160648201526000608482015260a4016020604051808303816000875af11580156107eb573d6000803e3d6000fd5b505050506040513d601f19601f8201168201806040525081019061080f9190613dc2565b61186a565b6000805491925061082690838361189a565b610870336108326118c8565b6040518060c00160405280898152602001336001600160a01b0316815260200142815260200186815260200162278d008152602001858152506118da565b5060405163095ea7b360e01b81526001600160a01b0384811660048301526000602483015287169063095ea7b3906044016020604051808303816000875af11580156108c0573d6000803e3d6000fd5b505050506040513d601f19601f820116820180604052508101906108e49190613ddb565b50505050505050565b60006108f882611902565b506104b88261193a565b61090d828233611945565b5050565b60006104d8611952565b610926838383611965565b61093183838361198c565b505050565b610941838383611965565b61093183838360405180602001604052806000815250611a11565b600033610968816109c3565b80610977575061097781611a28565b61098057600080fd5b61098a8484611a4d565b5060019392505050565b6000336109a081611a85565b6109aa6001611ab9565b6109b2611952565b91505090565b60006104b882611902565b60006109cd611ad4565b6001600160a01b03909216600090815260209290925250604090205460ff1690565b60006001600160a01b038216610a20576040516322718ad960e21b8152600060048201526024015b60405180910390fd5b6104b882611b3e565b600033610a3581611a85565b6109b2611b6a565b600033610a4981611bfc565b6109b2611c2d565b60006104d8611ce4565b60606104d8611cfd565b600080600080600080600080610a7a89611d15565b97509750975097509750975097509750919395975091939597565b61090d338383611de1565b6000610ab5670de0b6b3a7640000600a613dab565b610ac090600a613dab565b610acb90600a613dab565b610ad690600a613dab565b610ae190600a613dab565b821115610b0157604051636f7b6d7960e11b815260040160405180910390fd5b610b0a82611e72565b50919050565b610b1b848484611965565b610b2784848484611a11565b50505050565b6060610b3882611902565b506000610b448361236f565b6040805160c0810182528254815260018301546001600160a01b031660208083019190915260028401548284015260038401546060808401919091526004850154608084015260059094015460a08301528251938401909252858352925073__$596a0269b3fb5ac2cb57345c76580fb967$__9163c49917d7918101610bc8611952565b151581526060850151602091820152604080516001600160e01b031960e086901b16815283516004820152918301511515602483015291909101516044820152606401600060405180830381865af4158015610c28573d6000803e3d6000fd5b505050506040513d6000823e601f3d908101601f19168201604052610c509190810190613df8565b9392505050565b60006104d861238c565b6000610c5083836123a8565b6000610c82670de0b6b3a7640000600a613dab565b610c8d90600a613dab565b610c9890600a613dab565b610ca390600a613dab565b610cae90600a613dab565b821115610cce57604051636f7b6d7960e11b815260040160405180910390fd5b6001546040516394bf804d60e01b8152600481018490523060248201526001600160a01b03909116906394bf804d906044016020604051808303816000875af1158015610d1f573d6000803e3d6000fd5b505050506040513d601f19601f82011682018060405250810190610d439190613dc2565b506001546004805460405163095ea7b360e01b81526001600160a01b0391821692810192909252602482018590529091169063095ea7b3906044016020604051808303816000875af1158015610d9d573d6000803e3d6000fd5b505050506040513d601f19601f82011682018060405250810190610dc19190613ddb565b50600480546001546040516340ce413360e01b81526001600160a01b039182169381019390935260248301859052600060448401819052306064850152608484015216906340ce41339060a4016020604051808303816000875af1158015610e2d573d6000803e3d6000fd5b505050506040513d601f19601f82011682018060405250810190610e519190613dc2565b506000611022600360009054906101000a90046001600160a01b03166001600160a01b03166318160ddd6040518163ffffffff1660e01b8152600401602060405180830381865afa158015610eaa573d6000803e3d6000fd5b505050506040513d601f19601f82011682018060405250810190610ece9190613dc2565b6002546003546040516370a0823160e01b81526001600160a01b0391821660048201529116906370a0823190602401602060405180830381865afa158015610f1a573d6000803e3d6000fd5b505050506040513d601f19601f82011682018060405250810190610f3e9190613dc2565b6001546003546040516370a0823160e01b81526001600160a01b0391821660048201529116906370a0823190602401602060405180830381865afa158015610f8a573d6000803e3d6000fd5b505050506040513d601f19601f82011682018060405250810190610fae9190613dc2565b6002546040516370a0823160e01b81523060048201526001600160a01b03909116906370a0823190602401602060405180830381865afa158015610ff6573d6000803e3d6000fd5b505050506040513d601f19601f8201168201806040525081019061101a9190613dc2565b9291906123e5565b905061102f600182613e6f565b600480546040516363737ac960e11b81529182018390529192506000916001600160a01b03169063c6e6f59290602401602060405180830381865afa15801561107c573d6000803e3d6000fd5b505050506040513d601f19601f820116820180604052508101906110a09190613dc2565b6004805460035460405163769f8e5d60e01b81523093810193909352602483018490526001600160a01b0390811660448401526000606484018190526084840152929350919091169063769f8e5d9060a4016020604051808303816000875af1158015611111573d6000803e3d6000fd5b505050506040513d601f19601f820116820180604052508101906111359190613dc2565b506003546040516370a0823160e01b81523060048201526000916001600160a01b0316906370a0823190602401602060405180830381865afa15801561117f573d6000803e3d6000fd5b505050506040513d601f19601f820116820180604052508101906111a39190613dc2565b90506111d36040518060400160405280600c81526020016b6c705764416d74203d20257360a01b8152508461240c565b6112066040518060400160405280601181526020017062617365506f6f6f6c42616c203d20257360781b8152508261240c565b6112446040518060400160405280601a81526020017f707265706172696e6720746f206275726e2062617365506f6f6c000000000000815250612451565b60035460405163a9059cbb60e01b81526001600160a01b0390911660048201819052602482018390529063a9059cbb906044016020604051808303816000875af1158015611296573d6000803e3d6000fd5b505050506040513d601f19601f820116820180604052508101906112ba9190613ddb565b5060035460405163226bf2d160e21b81523060048201526001600160a01b03909116906389afcb449060240160408051808303816000875af1158015611304573d6000803e3d6000fd5b505050506040513d601f19601f820116820180604052508101906113289190613e82565b50506002546040516370a0823160e01b81523060048201526000916001600160a01b0316906370a0823190602401602060405180830381865afa158015611373573d6000803e3d6000fd5b505050506040513d601f19601f820116820180604052508101906113979190613dc2565b90506113c56040518060400160405280600a815260200169726342616c203d20257360b01b8152508261240c565b6002546040516370a0823160e01b81523060048201526001600160a01b039091169063fcd3533c9082906370a0823190602401602060405180830381865afa158015611415573d6000803e3d6000fd5b505050506040513d601f19601f820116820180604052508101906114399190613dc2565b6040516001600160e01b031960e084901b16815260048101919091523060248201526044016020604051808303816000875af115801561147d573d6000803e3d6000fd5b505050506040513d601f19601f820116820180604052508101906114a19190613dc2565b506001546040516370a0823160e01b81523060048201526000916001600160a01b0316906370a0823190602401602060405180830381865afa1580156114eb573d6000803e3d6000fd5b505050506040513d601f19601f8201168201806040525081019061150f9190613dc2565b9050611547604051806040016040528060148152602001737375626a65637450726f6365656473203d20257360601b8152508261240c565b600154604051633f34d4cf60e21b8152600481018390523060248201526001600160a01b039091169063fcd3533c906044016020604051808303816000875af1158015611598573d6000803e3d6000fd5b505050506040513d601f19601f820116820180604052508101906115bc9190613dc2565b506115c681611e72565b505050505050919050565b6000336115dd81611a85565b610c5083612494565b606060006115f3836124f1565b90508067ffffffffffffffff81111561160e5761160e613be5565b60405190808252806020026020018201604052801561164157816020015b606081526020019060019003908161162c5790505b50915060005b818110156117b657600061165a85612521565b828154811061166b5761166b613ea6565b9060005260206000200154905060006116838261236f565b6040805160c0810182528254815260018301546001600160a01b031660208083019190915260028401548284015260038401546060808401919091526004850154608084015260059094015460a08301528251938401909252848352925073__$596a0269b3fb5ac2cb57345c76580fb967$__9163c49917d7918101611707611952565b151581526060850151602091820152604080516001600160e01b031960e086901b16815283516004820152918301511515602483015291909101516044820152606401600060405180830381865af4158015611767573d6000803e3d6000fd5b505050506040513d6000823e601f3d908101601f1916820160405261178f9190810190613df8565b8584815181106117a1576117a1613ea6565b60209081029190910101525050600101611647565b5050919050565b60006104b86001600160e01b03198316612550565b60606117dc612563565b80546117e790613ebc565b80601f016020809104026020016040519081016040528092919081815260200182805461181390613ebc565b80156118605780601f1061183557610100808354040283529160200191611860565b820191906000526020600020905b81548152906001019060200180831161184357829003601f168201915b5050505050905090565b6000611877600283613f06565b90506118848260026125cd565b60000361189057919050565b6104b88183613f1a565b60006118a58461236f565b9050828160030160008282546118bb9190613e6f565b9091555050600501555050565b60006104d86118d56125e6565b612650565b60006118e6848461266e565b6118f0838361269c565b6118fa8484612710565b949350505050565b60008061190e83612777565b90506001600160a01b0381166104b857604051637e27328960e01b815260048101849052602401610a17565b60006104b882612782565b61093183838360016127a9565b600061195c612889565b5460ff16919050565b61196f83826128f3565b61197857600080fd5b611982838261292d565b610931828261266e565b6001600160a01b0382166119b657604051633250574960e11b815260006004820152602401610a17565b60006119c383833361295b565b9050836001600160a01b0316816001600160a01b031614610b27576040516364283d7b60e01b81526001600160a01b0380861660048301526024820184905282166044820152606401610a17565b611a1c84848461198c565b610b2784848484612a18565b6000611a32611ce4565b6001600160a01b0316826001600160a01b0316149050919050565b80611a56611ad4565b6001600160a01b039390931660009081526020939093526040909220805460ff19169215159290921790915550565b611a8e81611a28565b611ab65760405163245aecd360e01b81526001600160a01b0382166004820152602401610a17565b50565b80611ac2612889565b805460ff191691151591909117905550565b60006104d8600160405180602001611aeb90613a08565b601f1982820381018352601f90910116604081815282516020938401206001600160a01b03168383015280518083038401815291810190528051910120611b329190613f1a565b6338fa853960e01b1890565b6000611b48612563565b6001600160a01b03909216600090815260049290920160205250604090205490565b600080611b75612b41565b600101546001600160a01b031614611b8c57600080fd5b6000611b96612b41565b546001600160a01b031690506000611bac612b41565b80546001600160a01b0319166001600160a01b039283161790556040516000918316907f0d18b5fd22306e373229b9439188228edca81207d1667f604daf6cef8aa3ee67908390a3600191505090565b611c0581612bab565b611ab65760405163029c891560e41b81526001600160a01b0382166004820152602401610a17565b600080611c38612b41565b546001600160a01b031690506000611c4e612b41565b600101546001600160a01b0316905080611c66612b41565b80546001600160a01b0319166001600160a01b03929092169190911790556000611c8e612b41565b60010180546001600160a01b0319166001600160a01b03928316179055604051828216918416907f0d18b5fd22306e373229b9439188228edca81207d1667f604daf6cef8aa3ee6790600090a360019250505090565b6000611cee612b41565b546001600160a01b0316919050565b6060611d07612563565b60010180546117e790613ebc565b600080600080600080600080611d2a89612777565b90506000611d378a61236f565b6040805160c0810182528254815260018301546001600160a01b03166020820152600283015491810191909152600382015460608201526004820154608082015260059091015460a08201529050611d8d611952565b945084611d9b576000611daf565b80608001518160a00151611daf9190613e6f565b9350670de0b6b3a7640000815160208301516040840151606090940151919d909c50929a509850949650929450919050565b6001600160a01b038216611e1357604051630b61174360e31b81526001600160a01b0383166004820152602401610a17565b611e1e838383612bb5565b816001600160a01b0316836001600160a01b03167f17307eab39ab6107e8899845ad3d59bd9653f200f220920489ca2b5937696c3183604051611e65911515815260200190565b60405180910390a3505050565b6000611ea56040518060400160405280600f81526020016e6465706f736974416d74203d20257360881b8152508361240c565b600354604080516318160ddd60e01b815290516001600160a01b039092169160009183916318160ddd916004808201926020929091908290030181865afa158015611ef4573d6000803e3d6000fd5b505050506040513d601f19601f82011682018060405250810190611f189190613dc2565b9050611f5c6040518060c001604052806000815260200160006001600160a01b03168152602001600081526020016000815260200160008152602001600081525090565b600082156121d1576001546040516370a0823160e01b81526001600160a01b03868116600483015260009216906370a0823190602401602060405180830381865afa158015611faf573d6000803e3d6000fd5b505050506040513d601f19601f82011682018060405250810190611fd39190613dc2565b6002546040516370a0823160e01b81526001600160a01b038881166004830152929350600092909116906370a0823190602401602060405180830381865afa158015612023573d6000803e3d6000fd5b505050506040513d601f19601f820116820180604052508101906120479190613dc2565b90506000612055838a612bff565b90506000612064828585612c5a565b6002546040516394bf804d60e01b8152600481018390526001600160a01b038b811660248301529293509116906394bf804d906044016020604051808303816000875af11580156120b9573d6000803e3d6000fd5b505050506040513d601f19601f820116820180604052508101906120dd9190613dc2565b50876001600160a01b031663fff6cae96040518163ffffffff1660e01b8152600401600060405180830381600087803b15801561211957600080fd5b505af115801561212d573d6000803e3d6000fd5b50506001546040516394bf804d60e01b8152600481018e90523060248201526001600160a01b0390911692506394bf804d91506044016020604051808303816000875af1158015612182573d6000803e3d6000fd5b505050506040513d601f19601f820116820180604052508101906121a69190613dc2565b506001546002546121cb916001600160a01b038b811692918116918691899116612f49565b50505050505b6004805460405163095ea7b360e01b81526001600160a01b0391821692810183905260001960248201529086169063095ea7b3906044016020604051808303816000875af1158015612227573d6000803e3d6000fd5b505050506040513d601f19601f8201168201806040525081019061224b9190613ddb565b50600480546040516370a0823160e01b815230928101839052600092612292926001600160a01b039081169263db6f344c92918b91908216906370a0823190602401610748565b600080549192506122a490838361189a565b6122ee336122b06118c8565b6040518060c001604052808d8152602001336001600160a01b0316815260200142815260200186815260200162278d008152602001858152506118da565b5060405163095ea7b360e01b81526001600160a01b0384811660048301526000602483015288169063095ea7b3906044016020604051808303816000875af115801561233e573d6000803e3d6000fd5b505050506040513d601f19601f820116820180604052508101906123629190613ddb565b5050505050505050919050565b6000612379612889565b6000928352600101602052506040902090565b6000612396612b41565b600101546001600160a01b0316919050565b60006123b26125e6565b6001600160a01b039384166000908152600391909101602090815260408083209490951682529290925250205460ff1690565b6000806123f3868585612f9e565b9050612402868287878761306b565b9695505050505050565b61090d8282604051602401612422929190613f2d565b60408051601f198184030181529190526020810180516001600160e01b03166309710a9d60e41b1790526130c4565b611ab6816040516024016124659190613aec565b60408051601f198184030181529190526020810180516001600160e01b031663104c13eb60e21b1790526130c4565b60008161249f612b41565b60010180546001600160a01b0319166001600160a01b03928316179055604051908316907f89970d0a4e7f4f6b57845e46822475f332aee691dbe32017e50f857f8c98951e90600090a2506001919050565b60006104b86124fe612889565b6001600160a01b0384166000908152600291909101602052604090206001015490565b60006104b861252e612889565b6001600160a01b03841660009081526002919091016020526040902060010190565b60006104b86301ffc9a760e01b836130cd565b60006104d860016040518060200161257a90613a14565b601f1982820381018352601f90910116604081815282516020938401206001600160a01b031683830152805180830384018152918101905280519101206125c19190613f1a565b634a17459160e11b1890565b6000816000036125dc57600080fd5b610c508284613f4f565b60006104d86001604051806020016125fd90613a20565b601f1982820381018352601f90910116604081815282516020938401206001600160a01b031683830152805180830384018152918101905280519101206126449190613f1a565b6380ac58cd60e01b1890565b6000816000016000815461266390613f63565b918290555092915050565b6109318161267a612889565b6001600160a01b038516600090815260029190910160205260409020906130fd565b806126a5612889565b600093845260019081016020908152604094859020835181559083015191810180546001600160a01b0319166001600160a01b0390931692909217909155928101516002840155606081015160038401556080810151600484015560a0015160059092019190915550565b60006001600160a01b03831661273c57604051633250574960e11b815260006004820152602401610a17565b600061274a8484600061295b565b90506001600160a01b0381161561098a576040516339e3563760e11b815260006004820152602401610a17565b60006104b882613157565b600061278c6125e6565b60009283526002016020525060409020546001600160a01b031690565b80806127bd57506001600160a01b03821615155b1561287f5760006127cd84611902565b90506001600160a01b038316158015906127f95750826001600160a01b0316816001600160a01b031614155b801561280c575061280a81846123a8565b155b156128355760405163a9fbf51f60e01b81526001600160a01b0384166004820152602401610a17565b811561287d5783856001600160a01b0316826001600160a01b03167f8c5be1e5ebec7d5bd14f71427d1e84f3dd0314c0f7b2291e5b200ac8c7c3b92560405160405180910390a45b505b610b27838561317e565b60006104d86001604051806020016128a090613a2c565b601f1982820381018352601f90910116604081815282516020938401206001600160a01b031683830152805180830384018152918101905280519101206128e79190613f1a565b6311e68ef760e21b1890565b6000610c5082612901612889565b6001600160a01b0386166000908152600291909101602090815260408083209383529290522054151590565b61093181612939612889565b6001600160a01b038516600090815260029190910160205260409020906131b8565b60008061296784612777565b90506001600160a01b0383161561298357612983818486613291565b6001600160a01b038116156129ab576129a06000856000806127a9565b6129ab8160016132f5565b6001600160a01b038516156129c5576129c585600161334f565b6129cf8486613367565b83856001600160a01b0316826001600160a01b03167fddf252ad1be2c89b69c2b068fc378daa952ba7f163c4a11628f55a4df523b3ef60405160405180910390a4949350505050565b6001600160a01b0383163b15610b2757604051630a85bd0160e11b81526001600160a01b0384169063150b7a0290612a5a903390889087908790600401613f7c565b6020604051808303816000875af1925050508015612a95575060408051601f3d908101601f19168201909252612a9291810190613faf565b60015b612afe573d808015612ac3576040519150601f19603f3d011682016040523d82523d6000602084013e612ac8565b606091505b508051600003612af657604051633250574960e11b81526001600160a01b0385166004820152602401610a17565b805181602001fd5b6001600160e01b03198116630a85bd0160e11b14612b3a57604051633250574960e11b81526001600160a01b0385166004820152602401610a17565b5050505050565b60006104d8600160405180602001612b5890613a38565b601f1982820381018352601f90910116604081815282516020938401206001600160a01b03168383015280518083038401815291810190528051910120612b9f9190613f1a565b63a6e1d6ed60e01b1890565b6000611a3261238c565b80612bbe6125e6565b6001600160a01b039485166000908152600391909101602090815260408083209590961682529390935292909120805460ff19169215159290921790915550565b60006107ca612c10846107cd613dab565b612c46612c2086623cda29613dab565b612c2d86623cda20613dab565b612c379190613e6f565b612c419087613dab565b6133a1565b612c509190613f1a565b610c509190613f06565b6000612c9a6040518060400160405280601781526020017f656e746572205f63616c6353616c6550726f6365656473000000000000000000815250612451565b612cc96040518060400160405280600d81526020016c616d6f756e74496e203d20257360981b8152508561240c565b60008411612d2d5760405162461bcd60e51b815260206004820152602b60248201527f426574746572556e6956325574696c733a20494e53554646494349454e545f4960448201526a1394155517d05353d5539560aa1b6064820152608401610a17565b612d5d6040518060400160405280600e81526020016d72657365727665496e203d20257360901b8152508461240c565b612d8e6040518060400160405280600f81526020016e726573657276654f7574203d20257360881b8152508361240c565b600083118015612d9e5750600082115b612dfb5760405162461bcd60e51b815260206004820152602860248201527f426574746572556e6956325574696c733a20494e53554646494349454e545f4c604482015267495155494449545960c01b6064820152608401610a17565b6000612e09856103e5613dab565b9050612e4160405180604001604052806014815260200173616d6f756e74496e57697468466565203d20257360601b8152508261240c565b6000612e4d8483613dab565b9050612e7f6040518060400160405280600e81526020016d6e756d657261746f72203d20257360901b8152508261240c565b600082612e8e876103e8613dab565b612e989190613e6f565b9050612ecc6040518060400160405280601081526020016f64656e6f6d696e61746f72203d20257360801b8152508261240c565b612ed68183613f06565b9350612f086040518060400160405280600e81526020016d616d6f756e744f7574203d20257360901b8152508561240c565b612f3f6040518060400160405280601681526020017565786974205f63616c6353616c6550726f636565647360501b815250612451565b5050509392505050565b600080612f568486612bff565b90506000612f6e6001600160a01b0389168884613476565b9050612f928785612f7f858a613f1a565b6001600160a01b038c1692919085613652565b98975050505050505050565b6000808411612fef5760405162461bcd60e51b815260206004820152601f60248201527f556e6956325574696c733a20494e53554646494349454e545f414d4f554e54006044820152606401610a17565b600083118015612fff5750600082115b6130565760405162461bcd60e51b815260206004820152602260248201527f556e6956325574696c733a20494e53554646494349454e545f4c495155494449604482015261545960f01b6064820152608401610a17565b826130618386613dab565b6118fa9190613f06565b600083156130aa576130a5836130818689613dab565b61308b9190613f06565b836130968789613dab565b6130a09190613f06565b6136e6565b612402565b6103e86130ba612c418789613dab565b6124029190613f1a565b611ab6816136fc565b6000610c50826130dc8561371d565b906001600160e01b0319166000908152602091909152604090205460ff1690565b60008181526020839052604081205461314e57600180840180549182018155600081815260208082209093018590559054848252918590526040902055600283015482111561314e57600283018290555b50600192915050565b60006131616125e6565b60009283526001016020525060409020546001600160a01b031690565b806131876125e6565b6000938452600201602052604090922080546001600160a01b0319166001600160a01b039093169290921790915550565b600081815260208390526040812054801561098a5760006131da600183613f1a565b6001808701805492935060009290916131f291613f1a565b8154811061320257613202613ea6565b906000526020600020015490508086600101838154811061322557613225613ea6565b60009182526020909120015561323c826001613e6f565b6000828152602088905260409020556001860180548061325e5761325e613fcc565b60008281526020808220830160001990810183905590920190925586825287905260408120555050600191505092915050565b61329c838383613755565b610931576001600160a01b0383166132ca57604051637e27328960e01b815260048101829052602401610a17565b60405163177e802f60e01b81526001600160a01b038316600482015260248101829052604401610a17565b600061330083611b3e565b90508181101561333c5760405163391434e360e21b81526001600160a01b03841660048201526024810182905260448101839052606401610a17565b6109318361334a8484613f1a565b6137ba565b61090d828261335d85611b3e565b61334a9190613e6f565b806133706125e6565b6000938452600101602052604090922080546001600160a01b0319166001600160a01b039093169290921790915550565b600181600160801b81106133ba5760409190911b9060801c5b6801000000000000000081106133d55760209190911b9060401c5b64010000000081106133ec5760109190911b9060201c5b6201000081106134015760089190911b9060101c5b61010081106134155760049190911b9060081c5b601081106134285760029190911b9060041c5b60088110613437578160011b91505b5080820401600190811c80830401811c80830401811c80830401811c80830401811c80830401811c80830401901c80820481811015610b0a5792915050565b6000806000856001600160a01b0316630902f1ac6040518163ffffffff1660e01b8152600401606060405180830381865afa1580156134b9573d6000803e3d6000fd5b505050506040513d601f19601f820116820180604052508101906134dd9190613ffe565b506001600160701b031691506001600160701b031691506000866001600160a01b0316630dfe16816040518163ffffffff1660e01b8152600401602060405180830381865afa158015613534573d6000803e3d6000fd5b505050506040513d601f19601f82011682018060405250810190613558919061404e565b9050600080826001600160a01b0316886001600160a01b03161461357d578385613580565b84845b9092509050613590878383612c5a565b9550600080846001600160a01b03168a6001600160a01b0316146135b6578760006135ba565b6000885b90925090506135d36001600160a01b038b168c8b6137e8565b6040805160008152602081019182905263022c0d9f60e01b9091526001600160a01b038c169063022c0d9f90613612908590859030906024810161406b565b600060405180830381600087803b15801561362c57600080fd5b505af1158015613640573d6000803e3d6000fd5b50505050505050505050509392505050565b60006136686001600160a01b03861687856137e8565b61367c6001600160a01b03851687846137e8565b6040516335313c2160e11b81523060048201526001600160a01b03871690636a627842906024016020604051808303816000875af11580156136c2573d6000803e3d6000fd5b505050506040513d601f19601f820116820180604052508101906124029190613dc2565b60008183106136f55781610c50565b5090919050565b80516a636f6e736f6c652e6c6f67602083016000808483855afa5050505050565b60006040518060200161372f90613a44565b6020820181038252601f19601f8201166040525080519060200120821891506104b88290565b60006001600160a01b038316158015906118fa5750826001600160a01b0316846001600160a01b0316148061378f575061378f84846123a8565b806118fa5750826001600160a01b03166137a88361193a565b6001600160a01b031614949350505050565b806137c3612563565b6001600160a01b03909316600090815260049390930160205260409092209190915550565b604080516001600160a01b03848116602483015260448083018590528351808403909101815260649092018352602080830180516001600160e01b031663a9059cbb60e01b17905283518085019094528084527f5361666545524332303a206c6f772d6c6576656c2063616c6c206661696c656490840152610931928692916000916138789185169084906138f5565b80519091501561093157808060200190518101906138969190613ddb565b6109315760405162461bcd60e51b815260206004820152602a60248201527f5361666545524332303a204552433230206f7065726174696f6e20646964206e6044820152691bdd081cdd58d8d9595960b21b6064820152608401610a17565b60606118fa8484600085856124028585858581866001600160a01b0386163b61396f5760405162461bcd60e51b815260206004820152602660248201527f416464726573733a2066756e6374696f6e2063616c6c20746f206e6f6e2d636f6044820152651b9d1c9858dd60d21b6064820152608401610a17565b856001600160a01b031684866040516139889190614098565b60006040518083038185875af1925050503d80600081146139c5576040519150601f19603f3d011682016040523d82523d6000602084013e6139ca565b606091505b509092509050816139ff578051156139e55780518082602001fd5b8260405162461bcd60e51b8152600401610a179190613aec565b94509492505050565b60e9806140b583390190565b60e98061419e83390190565b60e98061428783390190565b60e98061437083390190565b60e98061445983390190565b608d8061454283390190565b6001600160e01b031981168114611ab657600080fd5b600060208284031215613a7857600080fd5b8135610c5081613a50565b600060208284031215613a9557600080fd5b5035919050565b60005b83811015613ab7578181015183820152602001613a9f565b50506000910152565b60008151808452613ad8816020860160208601613a9c565b601f01601f19169290920160200192915050565b602081526000610c506020830184613ac0565b6001600160a01b0381168114611ab657600080fd5b60008060408385031215613b2757600080fd5b8235613b3281613aff565b946020939093013593505050565b600080600060608486031215613b5557600080fd5b8335613b6081613aff565b92506020840135613b7081613aff565b929592945050506040919091013590565b8015158114611ab657600080fd5b60008060408385031215613ba257600080fd5b8235613bad81613aff565b91506020830135613bbd81613b81565b809150509250929050565b600060208284031215613bda57600080fd5b8135610c5081613aff565b634e487b7160e01b600052604160045260246000fd5b604051601f8201601f1916810167ffffffffffffffff81118282101715613c2457613c24613be5565b604052919050565b600067ffffffffffffffff821115613c4657613c46613be5565b50601f01601f191660200190565b60008060008060808587031215613c6a57600080fd5b8435613c7581613aff565b93506020850135613c8581613aff565b925060408501359150606085013567ffffffffffffffff811115613ca857600080fd5b8501601f81018713613cb957600080fd5b8035613ccc613cc782613c2c565b613bfb565b818152886020838501011115613ce157600080fd5b8160208401602083013760006020838301015280935050505092959194509250565b60008060408385031215613d1657600080fd5b8235613d2181613aff565b91506020830135613bbd81613aff565b600060208083016020845280855180835260408601915060408160051b87010192506020870160005b82811015613d8857603f19888603018452613d76858351613ac0565b94509285019290850190600101613d5a565b5092979650505050505050565b634e487b7160e01b600052601160045260246000fd5b80820281158282048414176104b8576104b8613d95565b600060208284031215613dd457600080fd5b5051919050565b600060208284031215613ded57600080fd5b8151610c5081613b81565b600060208284031215613e0a57600080fd5b815167ffffffffffffffff811115613e2157600080fd5b8201601f81018413613e3257600080fd5b8051613e40613cc782613c2c565b818152856020838501011115613e5557600080fd5b613e66826020830160208601613a9c565b95945050505050565b808201808211156104b8576104b8613d95565b60008060408385031215613e9557600080fd5b505080516020909101519092909150565b634e487b7160e01b600052603260045260246000fd5b600181811c90821680613ed057607f821691505b602082108103610b0a57634e487b7160e01b600052602260045260246000fd5b634e487b7160e01b600052601260045260246000fd5b600082613f1557613f15613ef0565b500490565b818103818111156104b8576104b8613d95565b604081526000613f406040830185613ac0565b90508260208301529392505050565b600082613f5e57613f5e613ef0565b500690565b600060018201613f7557613f75613d95565b5060010190565b6001600160a01b038581168252841660208201526040810183905260806060820181905260009061240290830184613ac0565b600060208284031215613fc157600080fd5b8151610c5081613a50565b634e487b7160e01b600052603160045260246000fd5b80516001600160701b0381168114613ff957600080fd5b919050565b60008060006060848603121561401357600080fd5b61401c84613fe2565b925061402a60208501613fe2565b9150604084015163ffffffff8116811461404357600080fd5b809150509250925092565b60006020828403121561406057600080fd5b8151610c5081613aff565b84815283602082015260018060a01b03831660408201526080606082015260006124026080830184613ac0565b600082516140aa818460208701613a9c565b919091019291505056fe60b0610039600b82828239805160001a60731461002c57634e487b7160e01b600052600060045260246000fd5b30600052607381538281f3fe7300000000000000000000000000000000000000003014608060405260043610603d5760003560e01c806381366cef146042578063a86448bd146042575b600080fd5b6050604d3660046062565b90565b60405190815260200160405180910390f35b600060208284031215607357600080fd5b503591905056fea2646970667358221220825e76d98cc2a2b1aa55bed2a7002372b941d63ced1baee3e0fd9fe579a92bd164736f6c6343000817003360b0610039600b82828239805160001a60731461002c57634e487b7160e01b600052600060045260246000fd5b30600052607381538281f3fe7300000000000000000000000000000000000000003014608060405260043610603d5760003560e01c80635bbea69314604257806381366cef146042575b600080fd5b6050604d3660046062565b90565b60405190815260200160405180910390f35b600060208284031215607357600080fd5b503591905056fea2646970667358221220cc47dc8b433f71e76ea22d029d182248221243bc2e20124a2d0d06af994b076a64736f6c6343000817003360b0610039600b82828239805160001a60731461002c57634e487b7160e01b600052600060045260246000fd5b30600052607381538281f3fe7300000000000000000000000000000000000000003014608060405260043610603d5760003560e01c80632d0401b214604257806381366cef146042575b600080fd5b6050604d3660046062565b90565b60405190815260200160405180910390f35b600060208284031215607357600080fd5b503591905056fea2646970667358221220c063d28e28e42325ed7b1799cc474767b7b4a643e7731f30673969834d6ef94664736f6c6343000817003360b0610039600b82828239805160001a60731461002c57634e487b7160e01b600052600060045260246000fd5b30600052607381538281f3fe7300000000000000000000000000000000000000003014608060405260043610603d5760003560e01c80634685ad9614604257806381366cef146042575b600080fd5b6050604d3660046062565b90565b60405190815260200160405180910390f35b600060208284031215607357600080fd5b503591905056fea26469706673582212206649bef21f30c00469754f22bdbda78d70a97843a301b6aa89ccfd4e43bd6a9164736f6c6343000817003360b0610039600b82828239805160001a60731461002c57634e487b7160e01b600052600060045260246000fd5b30600052607381538281f3fe7300000000000000000000000000000000000000003014608060405260043610603d5760003560e01c8063703de8b214604257806381366cef146042575b600080fd5b6050604d3660046062565b90565b60405190815260200160405180910390f35b600060208284031215607357600080fd5b503591905056fea264697066735822122093d0efc53f4f3d23d9f369afaae52ee547193af061210538df4ae1e04285556364736f6c6343000817003360566037600b82828239805160001a607314602a57634e487b7160e01b600052600060045260246000fd5b30600052607381538281f3fe73000000000000000000000000000000000000000030146080604052600080fdfea264697066735822122006c847ac7bcdd9bd18dc36ffeaa59dc4d8f8cf1f22cdaa74e38b2babad5d7a8164736f6c63430008170033a2646970667358221220a4aa15c54cbd6922f41fc3574d39bab29446d91474615fa998a23d125e63e87364736f6c6343000817003360b0610039600b82828239805160001a60731461002c57634e487b7160e01b600052600060045260246000fd5b30600052607381538281f3fe7300000000000000000000000000000000000000003014608060405260043610603d5760003560e01c8063703de8b214604257806381366cef146042575b600080fd5b6050604d3660046062565b90565b60405190815260200160405180910390f35b600060208284031215607357600080fd5b503591905056fea264697066735822122093d0efc53f4f3d23d9f369afaae52ee547193af061210538df4ae1e04285556364736f6c6343000817003360b0610039600b82828239805160001a60731461002c57634e487b7160e01b600052600060045260246000fd5b30600052607381538281f3fe7300000000000000000000000000000000000000003014608060405260043610603d5760003560e01c80634685ad9614604257806381366cef146042575b600080fd5b6050604d3660046062565b90565b60405190815260200160405180910390f35b600060208284031215607357600080fd5b503591905056fea26469706673582212206649bef21f30c00469754f22bdbda78d70a97843a301b6aa89ccfd4e43bd6a9164736f6c6343000817003360b0610039600b82828239805160001a60731461002c57634e487b7160e01b600052600060045260246000fd5b30600052607381538281f3fe7300000000000000000000000000000000000000003014608060405260043610603d5760003560e01c80632d0401b214604257806381366cef146042575b600080fd5b6050604d3660046062565b90565b60405190815260200160405180910390f35b600060208284031215607357600080fd5b503591905056fea2646970667358221220c063d28e28e42325ed7b1799cc474767b7b4a643e7731f30673969834d6ef94664736f6c6343000817003360b0610039600b82828239805160001a60731461002c57634e487b7160e01b600052600060045260246000fd5b30600052607381538281f3fe7300000000000000000000000000000000000000003014608060405260043610603d5760003560e01c80635bbea69314604257806381366cef146042575b600080fd5b6050604d3660046062565b90565b60405190815260200160405180910390f35b600060208284031215607357600080fd5b503591905056fea2646970667358221220cc47dc8b433f71e76ea22d029d182248221243bc2e20124a2d0d06af994b076a64736f6c63430008170033","linkReferences":{"lib/thefactory/contracts/tokens/erc721/types/NFTDescriptor.sol":{"NFTDescriptor":[{"start":5707,"length":20},{"start":8586,"length":20}]}}},"methodIdentifiers":{"DETF_NFT_TOKEN_ID()":"ca442164","acceptOwnership()":"79ba5097","allOwnedURIs(address)":"fe437a17","approve(address,uint256)":"095ea7b3","balanceOf(address)":"70a08231","basePool()":"c531e24f","calculatePositionValue(uint256)":"02a50329","deposit(uint256)":"b6b55f25","enableWithdraw()":"5b984ff6","getApproved(uint256)":"081812fc","initPool()":"080ce2eb","isApprovedForAll(address,address)":"e985e9c5","isOperator(address)":"6d70f7ae","lockEnd()":"a0ee4501","lockPeriod()":"3fd8b02f","name()":"06fdde03","owner()":"8da5cb5b","ownerOf(uint256)":"6352211e","positions(uint256)":"99fbab88","proposedOwner()":"d153b60c","rc()":"12f77332","redeemToDeposit(uint256)":"f0c08101","renounceOwnership()":"715018a6","safeTransferFrom(address,address,uint256)":"42842e0e","safeTransferFrom(address,address,uint256,bytes)":"b88d4fde","setApprovalForAll(address,bool)":"a22cb465","setOperator(address,bool)":"558a7297","subject()":"0a59a98c","supportsInterface(bytes4)":"01ffc9a7","symbol()":"95d89b41","tokenURI(uint256)":"c87b56dd","transferFrom(address,address,uint256)":"23b872dd","transferOwnership(address)":"f2fde38b","withdrawEnabled()":"2287e96a"},"id":8}