{"abi":[{"type":"constructor","inputs":[{"name":"DETF_","type":"address","internalType":"address"},{"name":"subjectToken_","type":"address","internalType":"address"},{"name":"sponsor","type":"address","internalType":"address"},{"name":"studyTerm","type":"uint256","internalType":"uint256"}],"stateMutability":"nonpayable"},{"type":"function","name":"DETF","inputs":[],"outputs":[{"name":"","type":"address","internalType":"address"}],"stateMutability":"view"},{"type":"function","name":"acceptOwnership","inputs":[],"outputs":[{"name":"","type":"bool","internalType":"bool"}],"stateMutability":"nonpayable"},{"type":"function","name":"allAccounts","inputs":[],"outputs":[{"name":"","type":"address[]","internalType":"address[]"}],"stateMutability":"view"},{"type":"function","name":"allScores","inputs":[],"outputs":[{"name":"scores","type":"tuple[]","internalType":"struct IMintableRCStudy.Score[]","components":[{"name":"account","type":"address","internalType":"address"},{"name":"score","type":"uint256","internalType":"uint256"}]}],"stateMutability":"view"},{"type":"function","name":"approveDeposit","inputs":[{"name":"spender","type":"address","internalType":"address"},{"name":"depositLimit","type":"uint256","internalType":"uint256"}],"outputs":[{"name":"","type":"bool","internalType":"bool"}],"stateMutability":"nonpayable"},{"type":"function","name":"basePoolPriceQuote","inputs":[],"outputs":[{"name":"","type":"uint256","internalType":"uint256"}],"stateMutability":"view"},{"type":"function","name":"burn","inputs":[{"name":"depositAmt","type":"uint256","internalType":"uint256"}],"outputs":[{"name":"score","type":"uint256","internalType":"uint256"}],"stateMutability":"nonpayable"},{"type":"function","name":"burnFor","inputs":[{"name":"account","type":"address","internalType":"address"},{"name":"depositAmt","type":"uint256","internalType":"uint256"}],"outputs":[{"name":"score","type":"uint256","internalType":"uint256"}],"stateMutability":"nonpayable"},{"type":"function","name":"claimCanceledFor","inputs":[{"name":"account","type":"address","internalType":"address"}],"outputs":[{"name":"refund","type":"uint256","internalType":"uint256"}],"stateMutability":"nonpayable"},{"type":"function","name":"claimReward","inputs":[],"outputs":[{"name":"","type":"bool","internalType":"bool"}],"stateMutability":"nonpayable"},{"type":"function","name":"claimRewardFor","inputs":[{"name":"account","type":"address","internalType":"address"}],"outputs":[{"name":"","type":"bool","internalType":"bool"}],"stateMutability":"nonpayable"},{"type":"function","name":"depositApproval","inputs":[{"name":"account","type":"address","internalType":"address"},{"name":"spender","type":"address","internalType":"address"}],"outputs":[{"name":"depositLimit","type":"uint256","internalType":"uint256"}],"stateMutability":"view"},{"type":"function","name":"depositsOf","inputs":[{"name":"account","type":"address","internalType":"address"}],"outputs":[{"name":"totalDeposits","type":"uint256","internalType":"uint256"}],"stateMutability":"view"},{"type":"function","name":"getIndexedReserves","inputs":[],"outputs":[{"name":"subjectVirtRes","type":"uint256","internalType":"uint256"},{"name":"rcVirtRes","type":"uint256","internalType":"uint256"}],"stateMutability":"view"},{"type":"function","name":"hasClaimed","inputs":[{"name":"account","type":"address","internalType":"address"}],"outputs":[{"name":"claimedReward","type":"bool","internalType":"bool"}],"stateMutability":"view"},{"type":"function","name":"indexedPriceQuote","inputs":[],"outputs":[{"name":"","type":"uint256","internalType":"uint256"}],"stateMutability":"view"},{"type":"function","name":"init","inputs":[{"name":"depositAmt","type":"uint256","internalType":"uint256"}],"outputs":[{"name":"score","type":"uint256","internalType":"uint256"}],"stateMutability":"nonpayable"},{"type":"function","name":"isInited","inputs":[],"outputs":[{"name":"","type":"bool","internalType":"bool"}],"stateMutability":"view"},{"type":"function","name":"isTerminated","inputs":[],"outputs":[{"name":"","type":"bool","internalType":"bool"}],"stateMutability":"view"},{"type":"function","name":"mint","inputs":[{"name":"depositAmt","type":"uint256","internalType":"uint256"}],"outputs":[{"name":"score","type":"uint256","internalType":"uint256"}],"stateMutability":"nonpayable"},{"type":"function","name":"mintFor","inputs":[{"name":"account","type":"address","internalType":"address"},{"name":"depositAmt","type":"uint256","internalType":"uint256"}],"outputs":[{"name":"score","type":"uint256","internalType":"uint256"}],"stateMutability":"nonpayable"},{"type":"function","name":"owner","inputs":[],"outputs":[{"name":"","type":"address","internalType":"address"}],"stateMutability":"view"},{"type":"function","name":"processDepositFor","inputs":[{"name":"account","type":"address","internalType":"address"},{"name":"depositAmt","type":"uint256","internalType":"uint256"},{"name":"process","type":"uint8","internalType":"enum IMintableRCStudy.Process"}],"outputs":[{"name":"score","type":"uint256","internalType":"uint256"}],"stateMutability":"nonpayable"},{"type":"function","name":"proposedOwner","inputs":[],"outputs":[{"name":"","type":"address","internalType":"address"}],"stateMutability":"view"},{"type":"function","name":"quoteReward","inputs":[{"name":"acccount","type":"address","internalType":"address"}],"outputs":[{"name":"rewardAmt","type":"uint256","internalType":"uint256"}],"stateMutability":"view"},{"type":"function","name":"rcIndexLpReserve","inputs":[],"outputs":[{"name":"","type":"uint256","internalType":"uint256"}],"stateMutability":"view"},{"type":"function","name":"rcIndexedVirtReserve","inputs":[],"outputs":[{"name":"","type":"uint256","internalType":"uint256"}],"stateMutability":"view"},{"type":"function","name":"rcYieldReserve","inputs":[],"outputs":[{"name":"","type":"uint112","internalType":"uint112"}],"stateMutability":"view"},{"type":"function","name":"renounceOwnership","inputs":[],"outputs":[{"name":"","type":"bool","internalType":"bool"}],"stateMutability":"nonpayable"},{"type":"function","name":"scoreOf","inputs":[{"name":"account","type":"address","internalType":"address"}],"outputs":[{"name":"accountScore","type":"uint256","internalType":"uint256"}],"stateMutability":"view"},{"type":"function","name":"studyEnd","inputs":[],"outputs":[{"name":"","type":"uint256","internalType":"uint256"}],"stateMutability":"view"},{"type":"function","name":"subjectIndexLpReserve","inputs":[],"outputs":[{"name":"","type":"uint256","internalType":"uint256"}],"stateMutability":"view"},{"type":"function","name":"subjectIndexedVirtReserve","inputs":[],"outputs":[{"name":"","type":"uint256","internalType":"uint256"}],"stateMutability":"view"},{"type":"function","name":"subjectToken","inputs":[],"outputs":[{"name":"","type":"address","internalType":"contract IERC20"}],"stateMutability":"view"},{"type":"function","name":"subjectYieldReserve","inputs":[],"outputs":[{"name":"","type":"uint112","internalType":"uint112"}],"stateMutability":"view"},{"type":"function","name":"terminate","inputs":[],"outputs":[{"name":"","type":"bool","internalType":"bool"}],"stateMutability":"nonpayable"},{"type":"function","name":"totalDeposits","inputs":[],"outputs":[{"name":"","type":"uint256","internalType":"uint256"}],"stateMutability":"view"},{"type":"function","name":"totalScore","inputs":[],"outputs":[{"name":"","type":"uint256","internalType":"uint256"}],"stateMutability":"view"},{"type":"function","name":"totalVirtLP","inputs":[],"outputs":[{"name":"","type":"uint256","internalType":"uint256"}],"stateMutability":"view"},{"type":"function","name":"transferOwnership","inputs":[{"name":"proposedOwner_","type":"address","internalType":"address"}],"outputs":[{"name":"","type":"bool","internalType":"bool"}],"stateMutability":"nonpayable"},{"type":"event","name":"OwnershipTransfered","inputs":[{"name":"prevOwner","type":"address","indexed":true,"internalType":"address"},{"name":"newOwner","type":"address","indexed":true,"internalType":"address"}],"anonymous":false},{"type":"event","name":"TransferProposed","inputs":[{"name":"proposedOwner","type":"address","indexed":true,"internalType":"address"}],"anonymous":false},{"type":"error","name":"AlreadyInited","inputs":[]},{"type":"error","name":"HasClaimedReward","inputs":[]},{"type":"error","name":"IsClosed","inputs":[]},{"type":"error","name":"NotClosed","inputs":[]},{"type":"error","name":"NotInited","inputs":[]},{"type":"error","name":"NotOwner","inputs":[{"name":"caller","type":"address","internalType":"address"}]},{"type":"error","name":"NotProposed","inputs":[{"name":"caller","type":"address","internalType":"address"}]},{"type":"error","name":"NotTerminated","inputs":[]},{"type":"error","name":"SubjectNotExist","inputs":[]},{"type":"error","name":"Terminated","inputs":[]}],"bytecode":{"object":"0x60806040523480156200001157600080fd5b5060405162002394380380620023948339810160408190526200003491620001b3565b600080546001600160a01b0319166001600160a01b0386161790556200005a82620000be565b6001600160a01b0383163b620000835760405163cc54745160e01b815260040160405180910390fd5b600180546001600160a01b0319166001600160a01b0385161790556103e8600255620000b081426200021b565b600655506200024d92505050565b80620000c962000115565b80546001600160a01b0319166001600160a01b03928316179055604051908216906000907f0d18b5fd22306e373229b9439188228edca81207d1667f604daf6cef8aa3ee67908290a350565b6000620001846001604051806020016200012f9062000189565b601f1982820381018352601f90910116604081815282516020938401206001600160a01b0316838301528051808303840181529181019052805191012062000178919062000237565b63a6e1d6ed60e01b1890565b905090565b60e980620022ab83390190565b80516001600160a01b0381168114620001ae57600080fd5b919050565b60008060008060808587031215620001ca57600080fd5b620001d58562000196565b9350620001e56020860162000196565b9250620001f56040860162000196565b6060959095015193969295505050565b634e487b7160e01b600052601160045260246000fd5b8082018082111562000231576200023162000205565b92915050565b8181038181111562000231576200023162000205565b61204e806200025d6000396000f3fe608060405234801561001057600080fd5b50600436106102485760003560e01c8063b88a802f1161013b578063e2167401116100b8578063f2fde38b1161007c578063f2fde38b146104fa578063f83ce3111461050d578063fcc60b6a14610515578063ff85a2ba14610522578063ffd32f431461053557600080fd5b8063e216740114610490578063e3a9db1a146104a3578063e5c5c7ee146104c3578063ebb1bc05146104cb578063ee78f1d5146104e057600080fd5b8063d153b60c116100ff578063d153b60c14610452578063d1cc99761461045a578063da1919b31461046c578063dc59f7c71461047f578063df5867321461048857600080fd5b8063b88a802f14610406578063be3880c21461040e578063c006719f1461042b578063c29a102914610434578063cf783d8a1461043d57600080fd5b80634a0c008f116101c95780637d8820971161018d5780637d882097146103bc5780638da5cb5b146103c55780639cbdbd26146103cd578063a0712d68146103e0578063b7b0422d146103f357600080fd5b80634a0c008f14610356578063709a31271461035e578063715018a61461038957806373b2e80e1461039157806379ba5097146103b457600080fd5b80632a9a4460116102105780632a9a4460146102e95780633238778814610314578063393b236c1461032757806341cb878b1461033057806342966c681461034357600080fd5b80630c08bf881461024d578063133af4561461026a5780631b11e705146102985780631dd319cb146102c357806327a36d39146102d6575b600080fd5b61025561053e565b60405190151581526020015b60405180910390f35b61028a610278366004611bff565b600d6020526000908152604090205481565b604051908152602001610261565b61028a6102a6366004611c1a565b600f60209081526000928352604080842090915290825290205481565b61028a6102d1366004611c4d565b6105ac565b61028a6102e4366004611c77565b6105c3565b6000546102fc906001600160a01b031681565b6040516001600160a01b039091168152602001610261565b610255610322366004611c4d565b610773565b61028a60045481565b61028a61033e366004611bff565b6107b6565b61028a610351366004611cbb565b61083e565b61028a61084a565b600354610371906001600160701b031681565b6040516001600160701b039091168152602001610261565b61025561087a565b61025561039f366004611bff565b600e6020526000908152604090205460ff1681565b610255610894565b61028a600a5481565b6102fc6108a8565b6001546102fc906001600160a01b031681565b61028a6103ee366004611cbb565b6108b2565b61028a610401366004611cbb565b6108be565b6102556109e6565b610416610a1f565b60408051928352602083019190915201610261565b61028a600c5481565b61028a60025481565b610445610a69565b6040516102619190611cd4565b6102fc610acb565b60075461025590610100900460ff1681565b61028a61047a366004611c4d565b610ad5565b61028a60055481565b61028a610ae3565b61028a61049e366004611bff565b610b06565b61028a6104b1366004611bff565b600b6020526000908152604090205481565b61028a610b3c565b6104d3610b66565b6040516102619190611d21565b60035461037190600160701b90046001600160701b031681565b610255610508366004611bff565b610c56565b61028a610c74565b6007546102559060ff1681565b610255610530366004611bff565b610ccd565b61028a60065481565b60003361054a81610d86565b600654421061056c57604051637e1ebdc960e01b815260040160405180910390fd5b600754610100900460ff161561059557604051632b54f9cd60e11b815260040160405180910390fd5b6007805461ff001916610100179055600191505090565b60006105ba838360016105c3565b90505b92915050565b600754600090610100900460ff16156105ef57604051632b54f9cd60e11b815260040160405180910390fd5b60075460ff1615156001146106175760405163523b279360e01b815260040160405180910390fd5b600654421061063957604051637e1ebdc960e01b815260040160405180910390fd5b8383336001600160a01b038316146106b4576001600160a01b0382166000908152600f6020908152604080832033845290915290205481111561067b57600080fd5b6001600160a01b0382166000908152600f60209081526040808320338452909152812080548392906106ae908490611d8f565b90915550505b6001546106cc906001600160a01b0316833084610dbf565b6106d7600883610e30565b5080600a60008282546106ea9190611da2565b90915550506001600160a01b0382166000908152600b602052604081208054839290610717908490611da2565b909155506000905084600181111561073157610731611db5565b03610747576107408686610e9b565b925061076a565b600184600181111561075b5761075b611db5565b0361076a576107408686610f60565b50509392505050565b336000908152600f602090815260408083206001600160a01b03861684529091528120805483919083906107a8908490611da2565b909155506001949350505050565b60075460009060ff6101009091041615156001146107e7576040516304d824a560e41b815260040160405180910390fd5b600654421061080957604051637e1ebdc960e01b815260040160405180910390fd5b506001600160a01b038082166000908152600b6020526040812080549190556001549091610839911683836110d9565b919050565b60006105bd33836105ac565b6004546002546003546000926108759290916001600160701b0380821691600160701b90041661110e565b905090565b60003361088681610d86565b61088e61114b565b91505090565b6000336108a0816111dd565b61088e61120e565b60006108756112c5565b60006105bd3383610ad5565b6000336108ca81610d86565b600754610100900460ff16156108f357604051632b54f9cd60e11b815260040160405180910390fd5b60075460ff1615610917576040516343b0639f60e11b815260040160405180910390fd5b600654421061093957604051637e1ebdc960e01b815260040160405180910390fd5b3383600154610953906001600160a01b0316833084610dbf565b61095e600883610e30565b5080600a60008282546109719190611da2565b90915550506001600160a01b0382166000908152600b60205260408120805483929061099e908490611da2565b909155506109cf905033866103e86109be6109b98380611dcb565b6112de565b6109c89190611d8f565b88896113b3565b935050506007805460ff1916600117905550919050565b60006109f460065442101590565b1515600114610a16576040516345a5a96f60e11b815260040160405180910390fd5b61087533610ccd565b600254600354600454600092839290916001600160701b0380831692600160701b90041690610a509084848461110e565b9450610a6060055484838561110e565b93505050509091565b60606009805480602002602001604051908101604052809291908181526020018280548015610ac157602002820191906000526020600020905b81546001600160a01b03168152600190910190602001808311610aa3575b5050505050905090565b6000610875611545565b60006105ba838360006105c3565b600354600090610875906001600160701b0380821691600160701b900416611561565b600c546001600160a01b0382166000908152600d6020526040812054600a54919291610b329190611dcb565b6105bd9190611df8565b6005546002546003546000926108759290916001600160701b03600160701b82048116911661110e565b60098054606091908067ffffffffffffffff811115610b8757610b87611e0c565b604051908082528060200260200182016040528015610bcc57816020015b6040805180820190915260008082526020820152815260200190600190039081610ba55790505b50925060005b81811015610c50576000838281548110610bee57610bee611e22565b60009182526020808320909101546040805180820182526001600160a01b03909216808352808552600d845293205491810191909152865191925090869084908110610c3c57610c3c611e22565b602090810291909101015250600101610bd2565b50505090565b600033610c6281610d86565b610c6b83611576565b91505b50919050565b600254600354600454600092916001600160701b0380821692600160701b90920416908490610ca59085858561110e565b90506000610cb760055486858761110e565b9050610cc38282611561565b9550505050505090565b6001600160a01b0381166000908152600e6020526040812054829060ff161515600103610d0d576040516326f9c11d60e11b815260040160405180910390fd5b6006544210151515600114610d35576040516345a5a96f60e11b815260040160405180910390fd5b6000610d4084610b06565b600154909150610d5a906001600160a01b031685836110d9565b60019250506001600160a01b03166000908152600e60205260409020805460ff19166001179055919050565b610d8f816115d3565b610dbc5760405163245aecd360e01b81526001600160a01b03821660048201526024015b60405180910390fd5b50565b6040516001600160a01b0380851660248301528316604482015260648101829052610e2a9085906323b872dd60e01b906084015b60408051601f198184030181529190526020810180516001600160e01b03166001600160e01b0319909316929092179091526115f8565b50505050565b6001600160a01b038116600090815260208390526040812054610e92576001838101805491820181556000818152602080822090930180546001600160a01b0319166001600160a01b0387169081179091559154918152918590526040909120555b50600192915050565b6003546000908190610eb6906001600160701b0316846116ca565b600354909150600090610ede9083906001600160701b0380821691600160701b900416611720565b600354909150600090610f02908390600160701b90046001600160701b0316611e38565b600380546001600160701b03808416600160701b8102600160701b600160e01b031984168117909455939450600093610f46938a9390831692169190911790611789565b9050610f5587848389876113b3565b979650505050505050565b6000806000610f6d610a1f565b915091506000610f7e858484611720565b9050806003600e8282829054906101000a90046001600160701b0316610fa49190611e5f565b92506101000a8154816001600160701b0302191690836001600160701b0316021790555084600360008282829054906101000a90046001600160701b0316610fec9190611e38565b92506101000a8154816001600160701b0302191690836001600160701b0316021790555060006002549050600061102383836117d8565b600354909150600090819061104f90849086906001600160701b0380821691600160701b900416611816565b9150915082600460008282546110659190611d8f565b9091555061107590508385611d8f565b60025560038054829190600e9061109d908490600160701b90046001600160701b0316611e5f565b92506101000a8154816001600160701b0302191690836001600160701b031602179055506110cb8a83610e9b565b9a9950505050505050505050565b6040516001600160a01b03831660248201526044810182905261110990849063a9059cbb60e01b90606401610df3565b505050565b600080600061111f87878787611816565b9092509050611141816111328187611d8f565b61113c8589611d8f565b611720565b610f559083611da2565b600080611156611850565b600101546001600160a01b03161461116d57600080fd5b6000611177611850565b546001600160a01b03169050600061118d611850565b80546001600160a01b0319166001600160a01b039283161790556040516000918316907f0d18b5fd22306e373229b9439188228edca81207d1667f604daf6cef8aa3ee67908390a3600191505090565b6111e6816118ba565b610dbc5760405163029c891560e41b81526001600160a01b0382166004820152602401610db3565b600080611219611850565b546001600160a01b03169050600061122f611850565b600101546001600160a01b0316905080611247611850565b80546001600160a01b0319166001600160a01b0392909216919091179055600061126f611850565b60010180546001600160a01b0319166001600160a01b03928316179055604051828216918416907f0d18b5fd22306e373229b9439188228edca81207d1667f604daf6cef8aa3ee6790600090a360019250505090565b60006112cf611850565b546001600160a01b0316919050565b600181600160801b81106112f75760409190911b9060801c5b6801000000000000000081106113125760209190911b9060401c5b64010000000081106113295760109190911b9060201c5b62010000811061133e5760089190911b9060101c5b61010081106113525760049190911b9060081c5b601081106113655760029190911b9060041c5b60088110611374578160011b91505b5080820401600190811c80830401811c80830401811c80830401811c80830401811c80830401811c80830401901c80820481811015610c6e5792915050565b600083600260008282546113c79190611da2565b909155506113d69050846118c4565b935083600460008282546113ea9190611da2565b9250508190555083600560008282546114039190611da2565b90915550506003546000906114229085906001600160701b0316611e38565b600380546dffffffffffffffffffffffffffff19166001600160701b038381169190911791829055919250600091611464918691600160701b90910416611e38565b60038054600160701b600160e01b031916600160701b6001600160701b038416021790559050611493876118c4565b96506114a7826001600160701b03166118c4565b91506114bb816001600160701b03166118c4565b905060006114dc6114d5670de0b6b3a7640000600a611dcb565b8990611561565b90506114e88189611d8f565b6114f29089611da2565b600054909850611519906001600160a01b0316826001600160701b038087169086166118f4565b506115388989856001600160701b0316856001600160701b03166118f4565b9998505050505050505050565b600061154f611850565b600101546001600160a01b0316919050565b60006105ba83670de0b6b3a76400008461195e565b600081611581611850565b60010180546001600160a01b0319166001600160a01b03928316179055604051908316907f89970d0a4e7f4f6b57845e46822475f332aee691dbe32017e50f857f8c98951e90600090a2506001919050565b60006115dd6112c5565b6001600160a01b0316826001600160a01b0316149050919050565b600061164d826040518060400160405280602081526020017f5361666545524332303a206c6f772d6c6576656c2063616c6c206661696c6564815250856001600160a01b031661197d9092919063ffffffff16565b805190915015611109578080602001905181019061166b9190611e7f565b6111095760405162461bcd60e51b815260206004820152602a60248201527f5361666545524332303a204552433230206f7065726174696f6e20646964206e6044820152691bdd081cdd58d8d9595960b21b6064820152608401610db3565b60006107ca6116db846107cd611dcb565b61170c6116eb86623cda29611dcb565b6116f886623cda20611dcb565b6117029190611da2565b6109b99087611dcb565b6117169190611d8f565b6105ba9190611df8565b600080841180156117315750600083115b801561173d5750600082115b61174657600080fd5b6000611754856103e5611dcb565b905060006117628483611dcb565b9050600082611773876103e8611dcb565b61177d9190611da2565b9050610f558183611df8565b60008061179684866116ca565b905060006117a48287611d8f565b905060006117b3838787611720565b9050610f558282600254868a6117c99190611da2565b6117d3868b611d8f565b611994565b6003546000906001600160701b03600160701b820481169116826117fd8684846119ed565b905061180c8682878686611994565b9695505050505050565b600080846118248588611dcb565b61182e9190611df8565b91508461183b8488611dcb565b6118459190611df8565b905094509492505050565b600061087560016040518060200161186790611bdc565b601f1982820381018352601f90910116604081815282516020938401206001600160a01b031683830152805180830384018152918101905280519101206118ae9190611d8f565b63a6e1d6ed60e01b1890565b60006115dd611545565b60006118d1600283611df8565b90506118de826002611a28565b6000036118ea57919050565b6105bd8183611d8f565b600061190a6119038484611561565b8590611a41565b6001600160a01b0386166000908152600d6020526040812080549293508392909190611937908490611da2565b9250508190555080600c60008282546119509190611da2565b909155509095945050505050565b82820281151584158583048514171661197657600080fd5b0492915050565b606061198c8484600085611a56565b949350505050565b600083156119d3576119ce836119aa8689611dcb565b6119b49190611df8565b836119bf8789611dcb565b6119c99190611df8565b611ac3565b61180c565b6103e86119e36109b98789611dcb565b61180c9190611d8f565b600080841180156119fe5750600083115b8015611a0a5750600082115b611a1357600080fd5b82611a1e8386611dcb565b61198c9190611df8565b600081600003611a3757600080fd5b6105ba8284611ea8565b60006105ba8383670de0b6b3a764000061195e565b606082471015611ab75760405162461bcd60e51b815260206004820152602660248201527f416464726573733a20696e73756666696369656e742062616c616e636520666f6044820152651c8818d85b1b60d21b6064820152608401610db3565b61180c85858585611ad9565b6000818310611ad257816105ba565b5090919050565b600060606001600160a01b0386163b611b435760405162461bcd60e51b815260206004820152602660248201527f416464726573733a2066756e6374696f6e2063616c6c20746f206e6f6e2d636f6044820152651b9d1c9858dd60d21b6064820152608401610db3565b856001600160a01b03168486604051611b5c9190611ee0565b60006040518083038185875af1925050503d8060008114611b99576040519150601f19603f3d011682016040523d82523d6000602084013e611b9e565b606091505b50909250905081611bd357805115611bb95780518082602001fd5b8260405162461bcd60e51b8152600401610db39190611efc565b94509492505050565b60e980611f3083390190565b80356001600160a01b038116811461083957600080fd5b600060208284031215611c1157600080fd5b6105ba82611be8565b60008060408385031215611c2d57600080fd5b611c3683611be8565b9150611c4460208401611be8565b90509250929050565b60008060408385031215611c6057600080fd5b611c6983611be8565b946020939093013593505050565b600080600060608486031215611c8c57600080fd5b611c9584611be8565b925060208401359150604084013560028110611cb057600080fd5b809150509250925092565b600060208284031215611ccd57600080fd5b5035919050565b6020808252825182820181905260009190848201906040850190845b81811015611d155783516001600160a01b031683529284019291840191600101611cf0565b50909695505050505050565b602080825282518282018190526000919060409081850190868401855b82811015611d6c57815180516001600160a01b03168552860151868501529284019290850190600101611d3e565b5091979650505050505050565b634e487b7160e01b600052601160045260246000fd5b818103818111156105bd576105bd611d79565b808201808211156105bd576105bd611d79565b634e487b7160e01b600052602160045260246000fd5b80820281158282048414176105bd576105bd611d79565b634e487b7160e01b600052601260045260246000fd5b600082611e0757611e07611de2565b500490565b634e487b7160e01b600052604160045260246000fd5b634e487b7160e01b600052603260045260246000fd5b6001600160701b03818116838216019080821115611e5857611e58611d79565b5092915050565b6001600160701b03828116828216039080821115611e5857611e58611d79565b600060208284031215611e9157600080fd5b81518015158114611ea157600080fd5b9392505050565b600082611eb757611eb7611de2565b500690565b60005b83811015611ed7578181015183820152602001611ebf565b50506000910152565b60008251611ef2818460208701611ebc565b9190910192915050565b6020815260008251806020840152611f1b816040850160208701611ebc565b601f01601f1916919091016040019291505056fe60b0610039600b82828239805160001a60731461002c57634e487b7160e01b600052600060045260246000fd5b30600052607381538281f3fe7300000000000000000000000000000000000000003014608060405260043610603d5760003560e01c8063703de8b214604257806381366cef146042575b600080fd5b6050604d3660046062565b90565b60405190815260200160405180910390f35b600060208284031215607357600080fd5b503591905056fea264697066735822122093d0efc53f4f3d23d9f369afaae52ee547193af061210538df4ae1e04285556364736f6c63430008170033a2646970667358221220c91500ea2b24d8483eadd50f8c047e71d106c15e57aee5892a8310b03d118a1464736f6c6343000817003360b0610039600b82828239805160001a60731461002c57634e487b7160e01b600052600060045260246000fd5b30600052607381538281f3fe7300000000000000000000000000000000000000003014608060405260043610603d5760003560e01c8063703de8b214604257806381366cef146042575b600080fd5b6050604d3660046062565b90565b60405190815260200160405180910390f35b600060208284031215607357600080fd5b503591905056fea264697066735822122093d0efc53f4f3d23d9f369afaae52ee547193af061210538df4ae1e04285556364736f6c63430008170033","linkReferences":{}},"methodIdentifiers":{"DETF()":"2a9a4460","acceptOwnership()":"79ba5097","allAccounts()":"cf783d8a","allScores()":"ebb1bc05","approveDeposit(address,uint256)":"32387788","basePoolPriceQuote()":"df586732","burn(uint256)":"42966c68","burnFor(address,uint256)":"1dd319cb","claimCanceledFor(address)":"41cb878b","claimReward()":"b88a802f","claimRewardFor(address)":"ff85a2ba","depositApproval(address,address)":"1b11e705","depositsOf(address)":"e3a9db1a","getIndexedReserves()":"be3880c2","hasClaimed(address)":"73b2e80e","indexedPriceQuote()":"f83ce311","init(uint256)":"b7b0422d","isInited()":"fcc60b6a","isTerminated()":"d1cc9976","mint(uint256)":"a0712d68","mintFor(address,uint256)":"da1919b3","owner()":"8da5cb5b","processDepositFor(address,uint256,uint8)":"27a36d39","proposedOwner()":"d153b60c","quoteReward(address)":"e2167401","rcIndexLpReserve()":"dc59f7c7","rcIndexedVirtReserve()":"e5c5c7ee","rcYieldReserve()":"ee78f1d5","renounceOwnership()":"715018a6","scoreOf(address)":"133af456","studyEnd()":"ffd32f43","subjectIndexLpReserve()":"393b236c","subjectIndexedVirtReserve()":"4a0c008f","subjectToken()":"9cbdbd26","subjectYieldReserve()":"709a3127","terminate()":"0c08bf88","totalDeposits()":"7d882097","totalScore()":"c006719f","totalVirtLP()":"c29a1029","transferOwnership(address)":"f2fde38b"},"id":9}