{"abi":[{"type":"constructor","inputs":[{"name":"basePool_","type":"address","internalType":"contract IUniswapV2Pair"}],"stateMutability":"nonpayable"},{"type":"function","name":"balanceOf","inputs":[{"name":"account","type":"address","internalType":"address"}],"outputs":[{"name":"balance","type":"uint256","internalType":"uint256"}],"stateMutability":"view"},{"type":"function","name":"basePool","inputs":[],"outputs":[{"name":"","type":"address","internalType":"contract IUniswapV2Pair"}],"stateMutability":"view"},{"type":"function","name":"basePoolLocalBal","inputs":[],"outputs":[{"name":"","type":"uint256","internalType":"uint256"}],"stateMutability":"view"},{"type":"function","name":"convertToAssets","inputs":[{"name":"assets","type":"uint256","internalType":"uint256"}],"outputs":[{"name":"shares","type":"uint256","internalType":"uint256"}],"stateMutability":"view"},{"type":"function","name":"convertToAssets","inputs":[{"name":"shares","type":"uint256","internalType":"uint256"},{"name":"reserve","type":"uint256","internalType":"uint256"}],"outputs":[{"name":"","type":"uint256","internalType":"uint256"}],"stateMutability":"view"},{"type":"function","name":"convertToShares","inputs":[{"name":"assets","type":"uint256","internalType":"uint256"}],"outputs":[{"name":"shares","type":"uint256","internalType":"uint256"}],"stateMutability":"view"},{"type":"function","name":"convertToShares","inputs":[{"name":"assets","type":"uint256","internalType":"uint256"},{"name":"reserve","type":"uint256","internalType":"uint256"}],"outputs":[{"name":"shares","type":"uint256","internalType":"uint256"}],"stateMutability":"view"},{"type":"function","name":"deposit","inputs":[{"name":"receiver","type":"address","internalType":"address"},{"name":"tokenIn","type":"address","internalType":"address"},{"name":"amountTokenToDeposit","type":"uint256","internalType":"uint256"},{"name":"minSharesOut","type":"uint256","internalType":"uint256"},{"name":"depositFromInternalBalance","type":"bool","internalType":"bool"}],"outputs":[{"name":"amountSharesOut","type":"uint256","internalType":"uint256"}],"stateMutability":"nonpayable"},{"type":"function","name":"getTokensIn","inputs":[],"outputs":[{"name":"res","type":"address[]","internalType":"address[]"}],"stateMutability":"view"},{"type":"function","name":"getTokensOut","inputs":[],"outputs":[{"name":"res","type":"address[]","internalType":"address[]"}],"stateMutability":"view"},{"type":"function","name":"redeem","inputs":[{"name":"receiver","type":"address","internalType":"address"},{"name":"amountSharesToRedeem","type":"uint256","internalType":"uint256"},{"name":"tokenOut","type":"address","internalType":"address"},{"name":"minTokenOut","type":"uint256","internalType":"uint256"},{"name":"burnFromInternalBalance","type":"bool","internalType":"bool"}],"outputs":[{"name":"amountTokenOut","type":"uint256","internalType":"uint256"}],"stateMutability":"nonpayable"},{"type":"function","name":"swap","inputs":[{"name":"tokenIn_","type":"address","internalType":"contract IERC20"},{"name":"saleAmt","type":"uint256","internalType":"uint256"},{"name":"","type":"address","internalType":"contract IERC20"},{"name":"to_","type":"address","internalType":"address"},{"name":"fromInternal_","type":"bool","internalType":"bool"}],"outputs":[{"name":"proceeds","type":"uint256","internalType":"uint256"}],"stateMutability":"nonpayable"},{"type":"function","name":"token0","inputs":[],"outputs":[{"name":"","type":"address","internalType":"contract IERC20"}],"stateMutability":"view"},{"type":"function","name":"token1","inputs":[],"outputs":[{"name":"","type":"address","internalType":"contract IERC20"}],"stateMutability":"view"},{"type":"function","name":"totalSupply","inputs":[],"outputs":[{"name":"","type":"uint256","internalType":"uint256"}],"stateMutability":"view"},{"type":"function","name":"yieldToken","inputs":[],"outputs":[{"name":"","type":"address","internalType":"address"}],"stateMutability":"view"},{"type":"error","name":"MathOverflowedMulDiv","inputs":[]}],"bytecode":{"object":"0x60806040523480156200001157600080fd5b506040516200275c3803806200275c83398101604081905262000034916200017f565b600080546001600160a01b0319166001600160a01b03831690811790915560408051630dfe168160e01b81529051630dfe1681916004808201926020929091908290030181865afa1580156200008e573d6000803e3d6000fd5b505050506040513d601f19601f82011682018060405250810190620000b491906200017f565b600260006101000a8154816001600160a01b0302191690836001600160a01b03160217905550806001600160a01b031663d21220a76040518163ffffffff1660e01b8152600401602060405180830381865afa15801562000119573d6000803e3d6000fd5b505050506040513d601f19601f820116820180604052508101906200013f91906200017f565b600380546001600160a01b0319166001600160a01b039290921691909117905550620001a6565b6001600160a01b03811681146200017c57600080fd5b50565b6000602082840312156200019257600080fd5b81516200019f8162000166565b9392505050565b6125a680620001b66000396000f3fe608060405234801561001057600080fd5b50600436106101005760003560e01c806370a0823111610097578063c6e6f59211610066578063c6e6f592146101fe578063d21220a714610211578063db2088f414610224578063db6f344c1461023757600080fd5b806370a08231146101a7578063769f8e5d146101c757806376d5de85146101da578063c531e24f146101eb57600080fd5b8063181e7b3b116100d3578063181e7b3b14610178578063213cae63146101055780632c9391971461018b57806340ce41331461019457600080fd5b8063071bc3c91461010557806307a2d13a146101235780630dfe16811461014457806318160ddd1461016f575b600080fd5b61010d61024a565b60405161011a919061201b565b60405180910390f35b610136610131366004612068565b610310565b60405190815260200161011a565b600254610157906001600160a01b031681565b6040516001600160a01b03909116815260200161011a565b61013660055481565b610136610186366004612081565b610389565b61013660015481565b6101366101a23660046120c6565b6103c3565b6101366101b536600461212e565b60066020526000908152604090205481565b6101366101d536600461214b565b61066f565b6000546001600160a01b0316610157565b600054610157906001600160a01b031681565b61013661020c366004612068565b61070d565b600354610157906001600160a01b031681565b610136610232366004612081565b610780565b61013661024536600461219c565b6107a8565b604080516003808252608082019092526060916020820183803683375050600054919250506001600160a01b03168160008151811061028b5761028b6121ed565b6001600160a01b0392831660209182029290920101526002548251911690829060019081106102bc576102bc6121ed565b6001600160a01b0392831660209182029290920101526003548251911690829060019081106102ed576102ed6121ed565b60200260200101906001600160a01b031690816001600160a01b03168152505090565b600080546040516370a0823160e01b81523060048201526103839184916001600160a01b03909116906370a0823190602401602060405180830381865afa15801561035f573d6000803e3d6000fd5b505050506040513d601f19601f820116820180604052508101906101869190612203565b92915050565b60006103bc610399836001612232565b6103a56000600a612329565b6005546103b29190612232565b859190600061097d565b9392505050565b60006103d08686846109cc565b5060006103dc87610a6b565b90506103fd81610100015182610120015188610ab49092919063ffffffff16565b915060006104248260e001518360800151846040015186610da8909392919063ffffffff16565b9050610431600182612232565b8251909150610449906001600160a01b031682610dc5565b505060608201516040516370a0823160e01b81523060048201526000916001600160a01b0316906370a0823190602401602060405180830381865afa158015610496573d6000803e3d6000fd5b505050506040513d601f19601f820116820180604052508101906104ba9190612203565b9050808411156104c957600080fd5b60208301516040516370a0823160e01b81523060048201526000916105c7916001600160a01b038216906370a0823190602401602060405180830381865afa158015610519573d6000803e3d6000fd5b505050506040513d601f19601f8201168201806040525081019061053d9190612203565b602087015187516040516370a0823160e01b81526001600160a01b0391821660048201529116906370a0823190602401602060405180830381865afa15801561058a573d6000803e3d6000fd5b505050506040513d601f19601f820116820180604052508101906105ae9190612203565b606088015188516001600160a01b031693929190610eb1565b905060008460a001518411156106345760008560e0015186608001518760a001516105f29190612338565b6105fc9190612365565b9050600061060a8289612379565b905061062f8760e001518860800151896040015184610da8909392919063ffffffff16565b925050505b610648856020015186606001518484610f06565b6060850151610661906001600160a01b03168988610fe0565b505050505095945050505050565b600080546001600160a01b03166001600160a01b0316846001600160a01b0316036101005761069d85610310565b9050808311156106ac57600080fd5b6000546106c3906001600160a01b03168783610fe0565b84600560008282546106d59190612379565b909155505033600090815260066020526040812080548792906106f9908490612379565b909155506107049050565b95945050505050565b600080546040516370a0823160e01b81523060048201526103839184916001600160a01b03909116906370a0823190602401602060405180830381865afa15801561075c573d6000803e3d6000fd5b505050506040513d601f19601f820116820180604052508101906102329190612203565b60006103bc61079082600a612329565b60055461079d9190612232565b6103b2846001612232565b60015460009081836107c9576107c96001600160a01b038816333089611048565b6002546001600160a01b03888116911614806107f257506003546001600160a01b038881169116145b1561082e576107ff611fad565b6000546001600160a01b0390811682528816602082015261081f81611080565b905061082b878261109a565b50505b600080546040516370a0823160e01b81523060048201526001600160a01b03909116906370a0823190602401602060405180830381865afa158015610877573d6000803e3d6000fd5b505050506040513d601f19601f8201168201806040525081019061089b9190612203565b90508091506108aa8284610780565b9350858410156108b957600080fd5b60018190556108c7826110ce565b6002546001600160a01b03166000908152600460205260408120805492945084929091906108f6908490612232565b90915550506003546001600160a01b031660009081526004602052604081208054849290610925908490612232565b92505081905550836005600082825461093e9190612232565b90915550506001600160a01b0389166000908152600660205260408120805486929061096b908490612232565b90915550939998505050505050505050565b60008061098b8686866110fe565b9050610996836111c2565b80156109b25750600084806109ad576109ad61234f565b868809115b15610704576109c2600182612232565b9695505050505050565b6000816109e8576109e86001600160a01b038516333086611048565b6040516370a0823160e01b81523060048201526000906001600160a01b038616906370a0823190602401602060405180830381865afa158015610a2f573d6000803e3d6000fd5b505050506040513d601f19601f82011682018060405250810190610a539190612203565b905083811015610a6257600080fd5b50919392505050565b610a73611fad565b6000546001600160a01b03908116825282166020820152610a9381611080565b9050610a9e816111ef565b9050610aa981611236565b905061038381611366565b6000610af46040518060400160405280601781526020017f656e746572205f63616c6353616c6550726f6365656473000000000000000000815250611485565b610b236040518060400160405280600d81526020016c616d6f756e74496e203d20257360981b815250856114cb565b60008411610b8c5760405162461bcd60e51b815260206004820152602b60248201527f426574746572556e6956325574696c733a20494e53554646494349454e545f4960448201526a1394155517d05353d5539560aa1b60648201526084015b60405180910390fd5b610bbc6040518060400160405280600e81526020016d72657365727665496e203d20257360901b815250846114cb565b610bed6040518060400160405280600f81526020016e726573657276654f7574203d20257360881b815250836114cb565b600083118015610bfd5750600082115b610c5a5760405162461bcd60e51b815260206004820152602860248201527f426574746572556e6956325574696c733a20494e53554646494349454e545f4c604482015267495155494449545960c01b6064820152608401610b83565b6000610c68856103e5612338565b9050610ca060405180604001604052806014815260200173616d6f756e74496e57697468466565203d20257360601b815250826114cb565b6000610cac8483612338565b9050610cde6040518060400160405280600e81526020016d6e756d657261746f72203d20257360901b815250826114cb565b600082610ced876103e8612338565b610cf79190612232565b9050610d2b6040518060400160405280601081526020016f64656e6f6d696e61746f72203d20257360801b815250826114cb565b610d358183612365565b9350610d676040518060400160405280600e81526020016d616d6f756e744f7574203d20257360901b815250856114cb565b610d9e6040518060400160405280601681526020017565786974205f63616c6353616c6550726f636565647360501b815250611485565b5050509392505050565b600080610db6868585611514565b90506109c286828787876115e9565b60405163a9059cbb60e01b81526001600160a01b038316600482018190526024820183905260009182919063a9059cbb906044016020604051808303816000875af1158015610e18573d6000803e3d6000fd5b505050506040513d601f19601f82011682018060405250810190610e3c919061238c565b5060405163226bf2d160e21b81523060048201526001600160a01b038516906389afcb449060240160408051808303816000875af1158015610e82573d6000803e3d6000fd5b505050506040513d601f19601f82011682018060405250810190610ea691906123a9565b909590945092505050565b600080610ebe8486611647565b90506000610ed66001600160a01b038916888461169d565b9050610efa8785610ee7858a612379565b6001600160a01b038c1692919085611879565b98975050505050505050565b610f3c60405180604001604052806015815260200174656e746572205f757064617465526573657276657360581b815250611485565b8015610fac57610f4c8183612379565b6001600160a01b03851660009081526004602052604081208054909190610f74908490612232565b90915550506001600160a01b03831660009081526004602052604081208054839290610fa1908490612232565b90915550610fda9050565b6001600160a01b03841660009081526004602052604081208054849290610fd4908490612232565b90915550505b50505050565b6040516001600160a01b03831660248201526044810182905261104390849063a9059cbb60e01b906064015b60408051601f198184030181529190526020810180516001600160e01b03166001600160e01b03199093169290921790915261190d565b505050565b6040516001600160a01b0380851660248301528316604482015260648101829052610fda9085906323b872dd60e01b9060840161100c565b611088611fad565b61038382611095846119df565b611b23565b60006103bc8260200151848460800151856060015186600001516001600160a01b0316610eb190949392919063ffffffff16565b60006110db600283612365565b90506110e8826002611b6e565b6000036110f457919050565b6103838183612379565b60008383028160001985870982811083820303915050806000036111355783828161112b5761112b61234f565b04925050506103bc565b8084116111555760405163227bc15360e01b815260040160405180910390fd5b6000848688096000868103871696879004966002600389028118808a02820302808a02820302808a02820302808a02820302808a02820302808a02909103029181900381900460010186841190950394909402919094039290920491909117919091029150509392505050565b600060028260038111156111d8576111d86123cd565b6111e291906123e3565b60ff166001149050919050565b6111f7611fad565b506020808201516001600160a01b039081166000908152600480845260408083205460a08701526060860151909316825290925290205460c082015290565b61123e611fad565b61127760405180604001604052806018815260200177656e746572205f70756c6c4c50546f74616c537570706c7960401b815250611485565b81600001516001600160a01b03166318160ddd6040518163ffffffff1660e01b8152600401602060405180830381865afa1580156112b9573d6000803e3d6000fd5b505050506040513d601f19601f820116820180604052508101906112dd9190612203565b60e0830190815260408051808201909152601e81527f747265655f2e62617365506f6f6c546f74616c537570706c79203d20257300006020820152905161132491906114cb565b6113626040518060400160405280601781526020017f65786974205f70756c6c4c50546f74616c537570706c79000000000000000000815250611485565b5090565b61136e611fad565b6113a760405180604001604052806018815260200177656e746572205f70756c6c4c50546f74616c537570706c7960401b815250611485565b6113ce8260a00151836040015184608001518560e00151611b87909392919063ffffffff16565b610100830190815260408051808201909152601981527f747265655f2e746f6b656e496e56697274526573203d202573000000000000006020820152905161141691906114cb565b61143d8260c00151836080015184604001518560e00151611b87909392919063ffffffff16565b610120830190815260408051808201909152601a81527f747265655f2e746f6b656e4f757456697274526573203d2025730000000000006020820152905161132491906114cb565b6114c8816040516024016114999190612455565b60408051601f198184030181529190526020810180516001600160e01b031663104c13eb60e21b179052611bb3565b50565b61151082826040516024016114e1929190612468565b60408051601f198184030181529190526020810180516001600160e01b03166309710a9d60e41b179052611bb3565b5050565b60008084116115655760405162461bcd60e51b815260206004820152601f60248201527f556e6956325574696c733a20494e53554646494349454e545f414d4f554e54006044820152606401610b83565b6000831180156115755750600082115b6115cc5760405162461bcd60e51b815260206004820152602260248201527f556e6956325574696c733a20494e53554646494349454e545f4c495155494449604482015261545960f01b6064820152608401610b83565b826115d78386612338565b6115e19190612365565b949350505050565b6000831561162857611623836115ff8689612338565b6116099190612365565b836116148789612338565b61161e9190612365565b611bbc565b6109c2565b6103e861163d6116388789612338565b611bd2565b6109c29190612379565b60006107ca611658846107cd612338565b61168961166886623cda29612338565b61167586623cda20612338565b61167f9190612232565b6116389087612338565b6116939190612379565b6103bc9190612365565b6000806000856001600160a01b0316630902f1ac6040518163ffffffff1660e01b8152600401606060405180830381865afa1580156116e0573d6000803e3d6000fd5b505050506040513d601f19601f8201168201806040525081019061170491906124a6565b506001600160701b031691506001600160701b031691506000866001600160a01b0316630dfe16816040518163ffffffff1660e01b8152600401602060405180830381865afa15801561175b573d6000803e3d6000fd5b505050506040513d601f19601f8201168201806040525081019061177f91906124f6565b9050600080826001600160a01b0316886001600160a01b0316146117a45783856117a7565b84845b90925090506117b7878383610ab4565b9550600080846001600160a01b03168a6001600160a01b0316146117dd578760006117e1565b6000885b90925090506117fa6001600160a01b038b168c8b610fe0565b6040805160008152602081019182905263022c0d9f60e01b9091526001600160a01b038c169063022c0d9f906118399085908590309060248101612513565b600060405180830381600087803b15801561185357600080fd5b505af1158015611867573d6000803e3d6000fd5b50505050505050505050509392505050565b600061188f6001600160a01b0386168785610fe0565b6118a36001600160a01b0385168784610fe0565b6040516335313c2160e11b81523060048201526001600160a01b03871690636a627842906024016020604051808303816000875af11580156118e9573d6000803e3d6000fd5b505050506040513d601f19601f820116820180604052508101906109c29190612203565b6000611962826040518060400160405280602081526020017f5361666545524332303a206c6f772d6c6576656c2063616c6c206661696c6564815250856001600160a01b0316611cab9092919063ffffffff16565b8051909150156110435780806020019051810190611980919061238c565b6110435760405162461bcd60e51b815260206004820152602a60248201527f5361666545524332303a204552433230206f7065726174696f6e20646964206e6044820152691bdd081cdd58d8d9595960b21b6064820152608401610b83565b604080518082019091526000808252602082015260025460035460208401516001600160a01b03928316929182169116821480611a315750806001600160a01b031684602001516001600160a01b0316145b611a3a57600080fd5b83516040516370a0823160e01b81526001600160a01b039182166004820152908316906370a0823190602401602060405180830381865afa158015611a83573d6000803e3d6000fd5b505050506040513d601f19601f82011682018060405250810190611aa79190612203565b835283516040516370a0823160e01b81526001600160a01b039182166004820152908216906370a0823190602401602060405180830381865afa158015611af2573d6000803e3d6000fd5b505050506040513d601f19601f82011682018060405250810190611b169190612203565b6020840152509092915050565b611b2b611fad565b6020808401518351918401518551611b4f936001600160a01b039091169291611cba565b60808601526001600160a01b0316606085015260408401525090919050565b600081600003611b7d57600080fd5b6103bc8284612540565b60008080611b9786888787611dbb565b9092509050611ba884828785611df5565b979650505050505050565b6114c881611e21565b6000818310611bcb57816103bc565b5090919050565b600181600160801b8110611beb5760409190911b9060801c5b680100000000000000008110611c065760209190911b9060401c5b6401000000008110611c1d5760109190911b9060201c5b620100008110611c325760089190911b9060101c5b6101008110611c465760049190911b9060081c5b60108110611c595760029190911b9060041c5b60088110611c68578160011b91505b5080820401600190811c80830401811c80830401811c80830401811c80830401811c80830401811c80830401901c80820481811015611ca5578091505b50919050565b60606115e18484600085611e42565b600080600080876001600160a01b0316630dfe16816040518163ffffffff1660e01b8152600401602060405180830381865afa158015611cfe573d6000803e3d6000fd5b505050506040513d601f19601f82011682018060405250810190611d2291906124f6565b9050806001600160a01b0316876001600160a01b031614611d4557848187611daa565b85886001600160a01b031663d21220a76040518163ffffffff1660e01b8152600401602060405180830381865afa158015611d84573d6000803e3d6000fd5b505050506040513d601f19601f82011682018060405250810190611da891906124f6565b865b919a90995090975095505050505050565b60008084611dc98588612338565b611dd39190612365565b915084611de08488612338565b611dea9190612365565b905094509492505050565b600080611e1585611e068189612379565b611e108688612379565b610ab4565b90506109c28184612232565b80516a636f6e736f6c652e6c6f67602083016000808483855afa5050505050565b606082471015611ea35760405162461bcd60e51b815260206004820152602660248201527f416464726573733a20696e73756666696369656e742062616c616e636520666f6044820152651c8818d85b1b60d21b6064820152608401610b83565b6109c285858585600060606001600160a01b0386163b611f145760405162461bcd60e51b815260206004820152602660248201527f416464726573733a2066756e6374696f6e2063616c6c20746f206e6f6e2d636f6044820152651b9d1c9858dd60d21b6064820152608401610b83565b856001600160a01b03168486604051611f2d9190612554565b60006040518083038185875af1925050503d8060008114611f6a576040519150601f19603f3d011682016040523d82523d6000602084013e611f6f565b606091505b50909250905081611fa457805115611f8a5780518082602001fd5b8260405162461bcd60e51b8152600401610b839190612455565b94509492505050565b60405180610140016040528060006001600160a01b0316815260200160006001600160a01b031681526020016000815260200160006001600160a01b031681526020016000815260200160008152602001600081526020016000815260200160008152602001600081525090565b6020808252825182820181905260009190848201906040850190845b8181101561205c5783516001600160a01b031683529284019291840191600101612037565b50909695505050505050565b60006020828403121561207a57600080fd5b5035919050565b6000806040838503121561209457600080fd5b50508035926020909101359150565b6001600160a01b03811681146114c857600080fd5b80151581146114c857600080fd5b600080600080600060a086880312156120de57600080fd5b85356120e9816120a3565b9450602086013593506040860135612100816120a3565b92506060860135612110816120a3565b91506080860135612120816120b8565b809150509295509295909350565b60006020828403121561214057600080fd5b81356103bc816120a3565b600080600080600060a0868803121561216357600080fd5b853561216e816120a3565b9450602086013593506040860135612185816120a3565b9250606086013591506080860135612120816120b8565b600080600080600060a086880312156121b457600080fd5b85356121bf816120a3565b945060208601356121cf816120a3565b935060408601359250606086013591506080860135612120816120b8565b634e487b7160e01b600052603260045260246000fd5b60006020828403121561221557600080fd5b5051919050565b634e487b7160e01b600052601160045260246000fd5b808201808211156103835761038361221c565b600181815b808511156122805781600019048211156122665761226661221c565b8085161561227357918102915b93841c939080029061224a565b509250929050565b60008261229757506001610383565b816122a457506000610383565b81600181146122ba57600281146122c4576122e0565b6001915050610383565b60ff8411156122d5576122d561221c565b50506001821b610383565b5060208310610133831016604e8410600b8410161715612303575081810a610383565b61230d8383612245565b80600019048211156123215761232161221c565b029392505050565b60006103bc60ff841683612288565b80820281158282048414176103835761038361221c565b634e487b7160e01b600052601260045260246000fd5b6000826123745761237461234f565b500490565b818103818111156103835761038361221c565b60006020828403121561239e57600080fd5b81516103bc816120b8565b600080604083850312156123bc57600080fd5b505080516020909101519092909150565b634e487b7160e01b600052602160045260246000fd5b600060ff8316806123f6576123f661234f565b8060ff84160691505092915050565b60005b83811015612420578181015183820152602001612408565b50506000910152565b60008151808452612441816020860160208601612405565b601f01601f19169290920160200192915050565b6020815260006103bc6020830184612429565b60408152600061247b6040830185612429565b90508260208301529392505050565b80516001600160701b03811681146124a157600080fd5b919050565b6000806000606084860312156124bb57600080fd5b6124c48461248a565b92506124d26020850161248a565b9150604084015163ffffffff811681146124eb57600080fd5b809150509250925092565b60006020828403121561250857600080fd5b81516103bc816120a3565b84815283602082015260018060a01b03831660408201526080606082015260006109c26080830184612429565b60008261254f5761254f61234f565b500690565b60008251612566818460208701612405565b919091019291505056fea264697066735822122023aa8721b9755a1641be729ac8a41f06a2756ba460febeb15a34c799307d192264736f6c63430008170033","linkReferences":{}},"methodIdentifiers":{"balanceOf(address)":"70a08231","basePool()":"c531e24f","basePoolLocalBal()":"2c939197","convertToAssets(uint256)":"07a2d13a","convertToAssets(uint256,uint256)":"181e7b3b","convertToShares(uint256)":"c6e6f592","convertToShares(uint256,uint256)":"db2088f4","deposit(address,address,uint256,uint256,bool)":"db6f344c","getTokensIn()":"213cae63","getTokensOut()":"071bc3c9","redeem(address,uint256,address,uint256,bool)":"769f8e5d","swap(address,uint256,address,address,bool)":"40ce4133","token0()":"0dfe1681","token1()":"d21220a7","totalSupply()":"18160ddd","yieldToken()":"76d5de85"},"id":3}